{
    "contractName": "EmployeeCard",
    "abi": [
        {
            "inputs": [
                {
                    "internalType": "string",
                    "name": "name",
                    "type": "string"
                },
                {
                    "internalType": "string",
                    "name": "symbol",
                    "type": "string"
                }
            ],
            "stateMutability": "nonpayable",
            "type": "constructor"
        },
        {
            "anonymous": false,
            "inputs": [
                {
                    "indexed": true,
                    "internalType": "address",
                    "name": "owner",
                    "type": "address"
                },
                {
                    "indexed": true,
                    "internalType": "address",
                    "name": "approved",
                    "type": "address"
                },
                {
                    "indexed": true,
                    "internalType": "uint256",
                    "name": "tokenId",
                    "type": "uint256"
                }
            ],
            "name": "Approval",
            "type": "event"
        },
        {
            "anonymous": false,
            "inputs": [
                {
                    "indexed": true,
                    "internalType": "address",
                    "name": "owner",
                    "type": "address"
                },
                {
                    "indexed": true,
                    "internalType": "address",
                    "name": "operator",
                    "type": "address"
                },
                {
                    "indexed": false,
                    "internalType": "bool",
                    "name": "approved",
                    "type": "bool"
                }
            ],
            "name": "ApprovalForAll",
            "type": "event"
        },
        {
            "anonymous": false,
            "inputs": [
                {
                    "indexed": true,
                    "internalType": "address",
                    "name": "previousOwner",
                    "type": "address"
                },
                {
                    "indexed": true,
                    "internalType": "address",
                    "name": "newOwner",
                    "type": "address"
                }
            ],
            "name": "OwnershipTransferred",
            "type": "event"
        },
        {
            "anonymous": false,
            "inputs": [
                {
                    "indexed": true,
                    "internalType": "address",
                    "name": "from",
                    "type": "address"
                },
                {
                    "indexed": true,
                    "internalType": "address",
                    "name": "to",
                    "type": "address"
                },
                {
                    "indexed": true,
                    "internalType": "uint256",
                    "name": "tokenId",
                    "type": "uint256"
                }
            ],
            "name": "Transfer",
            "type": "event"
        },
        {
            "anonymous": false,
            "inputs": [
                {
                    "indexed": false,
                    "internalType": "address",
                    "name": "sender",
                    "type": "address"
                },
                {
                    "indexed": false,
                    "internalType": "uint256",
                    "name": "amount",
                    "type": "uint256"
                },
                {
                    "indexed": false,
                    "internalType": "bytes",
                    "name": "data",
                    "type": "bytes"
                }
            ],
            "name": "callReceived",
            "type": "event"
        },
        {
            "anonymous": false,
            "inputs": [
                {
                    "indexed": false,
                    "internalType": "address",
                    "name": "sender",
                    "type": "address"
                },
                {
                    "indexed": false,
                    "internalType": "uint256",
                    "name": "amount",
                    "type": "uint256"
                }
            ],
            "name": "tokenReceived",
            "type": "event"
        },
        {
            "stateMutability": "payable",
            "type": "fallback",
            "payable": true
        },
        {
            "inputs": [
                {
                    "internalType": "address",
                    "name": "to",
                    "type": "address"
                },
                {
                    "internalType": "uint256",
                    "name": "tokenId",
                    "type": "uint256"
                }
            ],
            "name": "approve",
            "outputs": [],
            "stateMutability": "nonpayable",
            "type": "function"
        },
        {
            "inputs": [
                {
                    "internalType": "address",
                    "name": "owner",
                    "type": "address"
                }
            ],
            "name": "balanceOf",
            "outputs": [
                {
                    "internalType": "uint256",
                    "name": "",
                    "type": "uint256"
                }
            ],
            "stateMutability": "view",
            "type": "function",
            "constant": true
        },
        {
            "inputs": [
                {
                    "internalType": "uint256",
                    "name": "tokenId",
                    "type": "uint256"
                }
            ],
            "name": "burn",
            "outputs": [],
            "stateMutability": "nonpayable",
            "type": "function"
        },
        {
            "inputs": [
                {
                    "internalType": "uint256",
                    "name": "tokenId",
                    "type": "uint256"
                }
            ],
            "name": "getApproved",
            "outputs": [
                {
                    "internalType": "address",
                    "name": "",
                    "type": "address"
                }
            ],
            "stateMutability": "view",
            "type": "function",
            "constant": true
        },
        {
            "inputs": [
                {
                    "internalType": "address",
                    "name": "owner",
                    "type": "address"
                },
                {
                    "internalType": "address",
                    "name": "operator",
                    "type": "address"
                }
            ],
            "name": "isApprovedForAll",
            "outputs": [
                {
                    "internalType": "bool",
                    "name": "",
                    "type": "bool"
                }
            ],
            "stateMutability": "view",
            "type": "function",
            "constant": true
        },
        {
            "inputs": [],
            "name": "name",
            "outputs": [
                {
                    "internalType": "string",
                    "name": "",
                    "type": "string"
                }
            ],
            "stateMutability": "view",
            "type": "function",
            "constant": true
        },
        {
            "inputs": [],
            "name": "owner",
            "outputs": [
                {
                    "internalType": "address",
                    "name": "",
                    "type": "address"
                }
            ],
            "stateMutability": "view",
            "type": "function",
            "constant": true
        },
        {
            "inputs": [
                {
                    "internalType": "uint256",
                    "name": "tokenId",
                    "type": "uint256"
                }
            ],
            "name": "ownerOf",
            "outputs": [
                {
                    "internalType": "address",
                    "name": "",
                    "type": "address"
                }
            ],
            "stateMutability": "view",
            "type": "function",
            "constant": true
        },
        {
            "inputs": [],
            "name": "renounceOwnership",
            "outputs": [],
            "stateMutability": "nonpayable",
            "type": "function"
        },
        {
            "inputs": [
                {
                    "internalType": "address",
                    "name": "from",
                    "type": "address"
                },
                {
                    "internalType": "address",
                    "name": "to",
                    "type": "address"
                },
                {
                    "internalType": "uint256",
                    "name": "tokenId",
                    "type": "uint256"
                }
            ],
            "name": "safeTransferFrom",
            "outputs": [],
            "stateMutability": "nonpayable",
            "type": "function"
        },
        {
            "inputs": [
                {
                    "internalType": "address",
                    "name": "from",
                    "type": "address"
                },
                {
                    "internalType": "address",
                    "name": "to",
                    "type": "address"
                },
                {
                    "internalType": "uint256",
                    "name": "tokenId",
                    "type": "uint256"
                },
                {
                    "internalType": "bytes",
                    "name": "data",
                    "type": "bytes"
                }
            ],
            "name": "safeTransferFrom",
            "outputs": [],
            "stateMutability": "nonpayable",
            "type": "function"
        },
        {
            "inputs": [
                {
                    "internalType": "address",
                    "name": "operator",
                    "type": "address"
                },
                {
                    "internalType": "bool",
                    "name": "approved",
                    "type": "bool"
                }
            ],
            "name": "setApprovalForAll",
            "outputs": [],
            "stateMutability": "nonpayable",
            "type": "function"
        },
        {
            "inputs": [
                {
                    "internalType": "bytes4",
                    "name": "interfaceId",
                    "type": "bytes4"
                }
            ],
            "name": "supportsInterface",
            "outputs": [
                {
                    "internalType": "bool",
                    "name": "",
                    "type": "bool"
                }
            ],
            "stateMutability": "view",
            "type": "function",
            "constant": true
        },
        {
            "inputs": [],
            "name": "symbol",
            "outputs": [
                {
                    "internalType": "string",
                    "name": "",
                    "type": "string"
                }
            ],
            "stateMutability": "view",
            "type": "function",
            "constant": true
        },
        {
            "inputs": [
                {
                    "internalType": "uint256",
                    "name": "index",
                    "type": "uint256"
                }
            ],
            "name": "tokenByIndex",
            "outputs": [
                {
                    "internalType": "uint256",
                    "name": "",
                    "type": "uint256"
                }
            ],
            "stateMutability": "view",
            "type": "function",
            "constant": true
        },
        {
            "inputs": [
                {
                    "internalType": "address",
                    "name": "owner",
                    "type": "address"
                },
                {
                    "internalType": "uint256",
                    "name": "index",
                    "type": "uint256"
                }
            ],
            "name": "tokenOfOwnerByIndex",
            "outputs": [
                {
                    "internalType": "uint256",
                    "name": "",
                    "type": "uint256"
                }
            ],
            "stateMutability": "view",
            "type": "function",
            "constant": true
        },
        {
            "inputs": [],
            "name": "totalSupply",
            "outputs": [
                {
                    "internalType": "uint256",
                    "name": "",
                    "type": "uint256"
                }
            ],
            "stateMutability": "view",
            "type": "function",
            "constant": true
        },
        {
            "inputs": [
                {
                    "internalType": "address",
                    "name": "from",
                    "type": "address"
                },
                {
                    "internalType": "address",
                    "name": "to",
                    "type": "address"
                },
                {
                    "internalType": "uint256",
                    "name": "tokenId",
                    "type": "uint256"
                }
            ],
            "name": "transferFrom",
            "outputs": [],
            "stateMutability": "nonpayable",
            "type": "function"
        },
        {
            "inputs": [
                {
                    "internalType": "address",
                    "name": "newOwner",
                    "type": "address"
                }
            ],
            "name": "transferOwnership",
            "outputs": [],
            "stateMutability": "nonpayable",
            "type": "function"
        },
        {
            "stateMutability": "payable",
            "type": "receive",
            "payable": true
        },
        {
            "inputs": [
                {
                    "internalType": "uint256",
                    "name": "tokenId",
                    "type": "uint256"
                }
            ],
            "name": "tokenURI",
            "outputs": [
                {
                    "internalType": "string",
                    "name": "",
                    "type": "string"
                }
            ],
            "stateMutability": "view",
            "type": "function",
            "constant": true
        },
        {
            "inputs": [
                {
                    "internalType": "address",
                    "name": "_recipient",
                    "type": "address"
                },
                {
                    "internalType": "string",
                    "name": "_tokenURI",
                    "type": "string"
                },
                {
                    "internalType": "uint256",
                    "name": "_startDate",
                    "type": "uint256"
                }
            ],
            "name": "mint",
            "outputs": [
                {
                    "internalType": "uint256",
                    "name": "",
                    "type": "uint256"
                }
            ],
            "stateMutability": "nonpayable",
            "type": "function"
        },
        {
            "inputs": [
                {
                    "internalType": "uint256",
                    "name": "tokenId",
                    "type": "uint256"
                }
            ],
            "name": "getEmployeeVacationRights",
            "outputs": [
                {
                    "internalType": "uint256",
                    "name": "",
                    "type": "uint256"
                }
            ],
            "stateMutability": "view",
            "type": "function",
            "constant": true
        },
        {
            "inputs": [
                {
                    "internalType": "address",
                    "name": "_holder",
                    "type": "address"
                }
            ],
            "name": "burnEmployeeCard",
            "outputs": [],
            "stateMutability": "nonpayable",
            "type": "function"
        },
        {
            "inputs": [],
            "name": "destruct",
            "outputs": [],
            "stateMutability": "nonpayable",
            "type": "function"
        }
    ],
    "bytecode": "0x60806040523480156200001157600080fd5b5060405162003e7a38038062003e7a8339818101604052810190620000379190620002e8565b818181600090816200004a9190620005b8565b5080600190816200005c9190620005b8565b5050506200007f620000736200008760201b60201c565b6200008f60201b60201c565b50506200069f565b600033905090565b6000600a60009054906101000a900473ffffffffffffffffffffffffffffffffffffffff16905081600a60006101000a81548173ffffffffffffffffffffffffffffffffffffffff021916908373ffffffffffffffffffffffffffffffffffffffff1602179055508173ffffffffffffffffffffffffffffffffffffffff168173ffffffffffffffffffffffffffffffffffffffff167f8be0079c531659141344cd1fd0a4f28419497f9722a3daafe3b4186f6b6457e060405160405180910390a35050565b6000604051905090565b600080fd5b600080fd5b600080fd5b600080fd5b6000601f19601f8301169050919050565b7f4e487b7100000000000000000000000000000000000000000000000000000000600052604160045260246000fd5b620001be8262000173565b810181811067ffffffffffffffff82111715620001e057620001df62000184565b5b80604052505050565b6000620001f562000155565b9050620002038282620001b3565b919050565b600067ffffffffffffffff82111562000226576200022562000184565b5b620002318262000173565b9050602081019050919050565b60005b838110156200025e57808201518184015260208101905062000241565b60008484015250505050565b6000620002816200027b8462000208565b620001e9565b905082815260208101848484011115620002a0576200029f6200016e565b5b620002ad8482856200023e565b509392505050565b600082601f830112620002cd57620002cc62000169565b5b8151620002df8482602086016200026a565b91505092915050565b600080604083850312156200030257620003016200015f565b5b600083015167ffffffffffffffff81111562000323576200032262000164565b5b6200033185828601620002b5565b925050602083015167ffffffffffffffff81111562000355576200035462000164565b5b6200036385828601620002b5565b9150509250929050565b600081519050919050565b7f4e487b7100000000000000000000000000000000000000000000000000000000600052602260045260246000fd5b60006002820490506001821680620003c057607f821691505b602082108103620003d657620003d562000378565b5b50919050565b60008190508160005260206000209050919050565b60006020601f8301049050919050565b600082821b905092915050565b600060088302620004407fffffffffffffffffffffffffffffffffffffffffffffffffffffffffffffffff8262000401565b6200044c868362000401565b95508019841693508086168417925050509392505050565b6000819050919050565b6000819050919050565b600062000499620004936200048d8462000464565b6200046e565b62000464565b9050919050565b6000819050919050565b620004b58362000478565b620004cd620004c482620004a0565b8484546200040e565b825550505050565b600090565b620004e4620004d5565b620004f1818484620004aa565b505050565b5b8181101562000519576200050d600082620004da565b600181019050620004f7565b5050565b601f82111562000568576200053281620003dc565b6200053d84620003f1565b810160208510156200054d578190505b620005656200055c85620003f1565b830182620004f6565b50505b505050565b600082821c905092915050565b60006200058d600019846008026200056d565b1980831691505092915050565b6000620005a883836200057a565b9150826002028217905092915050565b620005c3826200036d565b67ffffffffffffffff811115620005df57620005de62000184565b5b620005eb8254620003a7565b620005f88282856200051d565b600060209050601f8311600181146200063057600084156200061b578287015190505b6200062785826200059a565b86555062000697565b601f1984166200064086620003dc565b60005b828110156200066a5784890151825560018201915060208501945060208101905062000643565b868310156200068a578489015162000686601f8916826200057a565b8355505b6001600288020188555050505b505050505050565b6137cb80620006af6000396000f3fe60806040526004361061014f5760003560e01c80636352211e116100b6578063a22cb4651161006f578063a22cb46514610531578063b88d4fde1461055a578063ba7aef4314610583578063c87b56dd146105c0578063e985e9c5146105fd578063f2fde38b1461063a57610197565b80636352211e1461040d57806370a082311461044a578063715018a6146104875780638da5cb5b1461049e57806395d89b41146104c95780639f4b667c146104f457610197565b806323b872dd1161010857806323b872dd146103015780632b68b9c61461032a5780632f745c591461034157806342842e0e1461037e57806342966c68146103a75780634f6ccce7146103d057610197565b806301ffc9a7146101df57806306fdde031461021c5780630781f11114610247578063081812fc14610270578063095ea7b3146102ad57806318160ddd146102d657610197565b366101975761015c610663565b7fcae15051bbb38f81d4d2fb0eeba04c25ec7fc5e1ac9d89d6d68af8d3aab337dc333460405161018d929190612367565b60405180910390a1005b61019f610663565b7f78d4cde33f41357c4c319866718e27bd5646f1c22a31eaa3ee63a04a217bbfde33346000366040516101d594939291906123ee565b60405180910390a1005b3480156101eb57600080fd5b506102066004803603810190610201919061249a565b6106e1565b60405161021391906124e2565b60405180910390f35b34801561022857600080fd5b5061023161075b565b60405161023e919061257c565b60405180910390f35b34801561025357600080fd5b5061026e600480360381019061026991906125ca565b6107ed565b005b34801561027c57600080fd5b5061029760048036038101906102929190612623565b61084f565b6040516102a49190612650565b60405180910390f35b3480156102b957600080fd5b506102d460048036038101906102cf919061266b565b610895565b005b3480156102e257600080fd5b506102eb6108ab565b6040516102f891906126ab565b60405180910390f35b34801561030d57600080fd5b50610328600480360381019061032391906126c6565b6108b8565b005b34801561033657600080fd5b5061033f610918565b005b34801561034d57600080fd5b506103686004803603810190610363919061266b565b610940565b60405161037591906126ab565b60405180910390f35b34801561038a57600080fd5b506103a560048036038101906103a091906126c6565b6109e5565b005b3480156103b357600080fd5b506103ce60048036038101906103c99190612623565b610a05565b005b3480156103dc57600080fd5b506103f760048036038101906103f29190612623565b610a19565b60405161040491906126ab565b60405180910390f35b34801561041957600080fd5b50610434600480360381019061042f9190612623565b610a8a565b6040516104419190612650565b60405180910390f35b34801561045657600080fd5b50610471600480360381019061046c91906125ca565b610b3b565b60405161047e91906126ab565b60405180910390f35b34801561049357600080fd5b5061049c610bf2565b005b3480156104aa57600080fd5b506104b3610c06565b6040516104c09190612650565b60405180910390f35b3480156104d557600080fd5b506104de610c30565b6040516104eb919061257c565b60405180910390f35b34801561050057600080fd5b5061051b60048036038101906105169190612623565b610cc2565b60405161052891906126ab565b60405180910390f35b34801561053d57600080fd5b5061055860048036038101906105539190612745565b610d29565b005b34801561056657600080fd5b50610581600480360381019061057c91906128ab565b610d3f565b005b34801561058f57600080fd5b506105aa60048036038101906105a591906129cf565b610da1565b6040516105b791906126ab565b60405180910390f35b3480156105cc57600080fd5b506105e760048036038101906105e29190612623565b610f66565b6040516105f4919061257c565b60405180910390f35b34801561060957600080fd5b50610624600480360381019061061f9190612a3e565b611056565b60405161063191906124e2565b60405180910390f35b34801561064657600080fd5b50610661600480360381019061065c91906125ca565b6110ea565b005b61066b61116d565b73ffffffffffffffffffffffffffffffffffffffff16610689610c06565b73ffffffffffffffffffffffffffffffffffffffff16146106df576040517f08c379a00000000000000000000000000000000000000000000000000000000081526004016106d690612aca565b60405180910390fd5b565b60007f780e9d63000000000000000000000000000000000000000000000000000000007bffffffffffffffffffffffffffffffffffffffffffffffffffffffff1916827bffffffffffffffffffffffffffffffffffffffffffffffffffffffff19161480610754575061075382611175565b5b9050919050565b60606000805461076a90612b19565b80601f016020809104026020016040519081016040528092919081815260200182805461079690612b19565b80156107e35780601f106107b8576101008083540402835291602001916107e3565b820191906000526020600020905b8154815290600101906020018083116107c657829003601f168201915b5050505050905090565b6107f5610663565b6000600b60008373ffffffffffffffffffffffffffffffffffffffff1673ffffffffffffffffffffffffffffffffffffffff16815260200190815260200160002054905061084281611257565b61084b81610a05565b5050565b600061085a82611257565b6004600083815260200190815260200160002060009054906101000a900473ffffffffffffffffffffffffffffffffffffffff169050919050565b61089d610663565b6108a782826112a2565b5050565b6000600880549050905090565b6108c96108c361116d565b8261135b565b610908576040517f08c379a00000000000000000000000000000000000000000000000000000000081526004016108ff90612bbc565b60405180910390fd5b6109138383836113f0565b505050565b610920610663565b610928610c06565b73ffffffffffffffffffffffffffffffffffffffff16ff5b600061094b83610b3b565b821061098c576040517f08c379a000000000000000000000000000000000000000000000000000000000815260040161098390612c4e565b60405180910390fd5b600660008473ffffffffffffffffffffffffffffffffffffffff1673ffffffffffffffffffffffffffffffffffffffff168152602001908152602001600020600083815260200190815260200160002054905092915050565b610a0083838360405180602001604052806000815250610d3f565b505050565b610a0d610663565b610a1681611408565b50565b6000610a236108ab565b8210610a64576040517f08c379a0000000000000000000000000000000000000000000000000000000008152600401610a5b90612ce0565b60405180910390fd5b60088281548110610a7857610a77612d00565b5b90600052602060002001549050919050565b6000806002600084815260200190815260200160002060009054906101000a900473ffffffffffffffffffffffffffffffffffffffff169050600073ffffffffffffffffffffffffffffffffffffffff168173ffffffffffffffffffffffffffffffffffffffff1603610b32576040517f08c379a0000000000000000000000000000000000000000000000000000000008152600401610b2990612d7b565b60405180910390fd5b80915050919050565b60008073ffffffffffffffffffffffffffffffffffffffff168273ffffffffffffffffffffffffffffffffffffffff1603610bab576040517f08c379a0000000000000000000000000000000000000000000000000000000008152600401610ba290612e0d565b60405180910390fd5b600360008373ffffffffffffffffffffffffffffffffffffffff1673ffffffffffffffffffffffffffffffffffffffff168152602001908152602001600020549050919050565b610bfa610663565b610c046000611525565b565b6000600a60009054906101000a900473ffffffffffffffffffffffffffffffffffffffff16905090565b606060018054610c3f90612b19565b80601f0160208091040260200160405190810160405280929190818152602001828054610c6b90612b19565b8015610cb85780601f10610c8d57610100808354040283529160200191610cb8565b820191906000526020600020905b815481529060010190602001808311610c9b57829003601f168201915b5050505050905090565b6000610ccd82611257565b60006301e13380600c60008581526020019081526020016000206001015442610cf69190612e5c565b610d009190612ebf565b90506000600582610d119190612ebf565b9050806019610d209190612ef0565b92505050919050565b610d3b610d3461116d565b83836115eb565b5050565b610d50610d4a61116d565b8361135b565b610d8f576040517f08c379a0000000000000000000000000000000000000000000000000000000008152600401610d8690612bbc565b60405180910390fd5b610d9b84848484611757565b50505050565b6000610dab610663565b6000610db685610b3b565b14610df6576040517f08c379a0000000000000000000000000000000000000000000000000000000008152600401610ded90612f96565b60405180910390fd5b60003073ffffffffffffffffffffffffffffffffffffffff166318160ddd6040518163ffffffff1660e01b8152600401602060405180830381865afa158015610e43573d6000803e3d6000fd5b505050506040513d601f19601f82011682018060405250810190610e679190612fcb565b9050610e7385826117b3565b610e7c816117d1565b610ebb576040517f08c379a0000000000000000000000000000000000000000000000000000000008152600401610eb290612d7b565b60405180910390fd5b80600b60008773ffffffffffffffffffffffffffffffffffffffff1673ffffffffffffffffffffffffffffffffffffffff16815260200190815260200160002081905550604051806040016040528085815260200184815250600c60008381526020019081526020016000206000820151816000019081610f3c91906131a4565b5060208201518160010155905050610f5b610f55610c06565b826112a2565b809150509392505050565b6060610f71826117d1565b610fb0576040517f08c379a0000000000000000000000000000000000000000000000000000000008152600401610fa7906132e8565b60405180910390fd5b600c60008381526020019081526020016000206000018054610fd190612b19565b80601f0160208091040260200160405190810160405280929190818152602001828054610ffd90612b19565b801561104a5780601f1061101f5761010080835404028352916020019161104a565b820191906000526020600020905b81548152906001019060200180831161102d57829003601f168201915b50505050509050919050565b6000600560008473ffffffffffffffffffffffffffffffffffffffff1673ffffffffffffffffffffffffffffffffffffffff16815260200190815260200160002060008373ffffffffffffffffffffffffffffffffffffffff1673ffffffffffffffffffffffffffffffffffffffff16815260200190815260200160002060009054906101000a900460ff16905092915050565b6110f2610663565b600073ffffffffffffffffffffffffffffffffffffffff168173ffffffffffffffffffffffffffffffffffffffff1603611161576040517f08c379a00000000000000000000000000000000000000000000000000000000081526004016111589061337a565b60405180910390fd5b61116a81611525565b50565b600033905090565b60007f80ac58cd000000000000000000000000000000000000000000000000000000007bffffffffffffffffffffffffffffffffffffffffffffffffffffffff1916827bffffffffffffffffffffffffffffffffffffffffffffffffffffffff1916148061124057507f5b5e139f000000000000000000000000000000000000000000000000000000007bffffffffffffffffffffffffffffffffffffffffffffffffffffffff1916827bffffffffffffffffffffffffffffffffffffffffffffffffffffffff1916145b80611250575061124f8261183d565b5b9050919050565b611260816117d1565b61129f576040517f08c379a000000000000000000000000000000000000000000000000000000000815260040161129690612d7b565b60405180910390fd5b50565b816004600083815260200190815260200160002060006101000a81548173ffffffffffffffffffffffffffffffffffffffff021916908373ffffffffffffffffffffffffffffffffffffffff160217905550808273ffffffffffffffffffffffffffffffffffffffff1661131583610a8a565b73ffffffffffffffffffffffffffffffffffffffff167f8c5be1e5ebec7d5bd14f71427d1e84f3dd0314c0f7b2291e5b200ac8c7c3b92560405160405180910390a45050565b60008061136783610a8a565b90508073ffffffffffffffffffffffffffffffffffffffff168473ffffffffffffffffffffffffffffffffffffffff1614806113a957506113a88185611056565b5b806113e757508373ffffffffffffffffffffffffffffffffffffffff166113cf8461084f565b73ffffffffffffffffffffffffffffffffffffffff16145b91505092915050565b6113f8610663565b6114038383836118a7565b505050565b600061141382610a8a565b905061142181600084611b0d565b61142c6000836112a2565b6001600360008373ffffffffffffffffffffffffffffffffffffffff1673ffffffffffffffffffffffffffffffffffffffff168152602001908152602001600020600082825461147c9190612e5c565b925050819055506002600083815260200190815260200160002060006101000a81549073ffffffffffffffffffffffffffffffffffffffff021916905581600073ffffffffffffffffffffffffffffffffffffffff168273ffffffffffffffffffffffffffffffffffffffff167fddf252ad1be2c89b69c2b068fc378daa952ba7f163c4a11628f55a4df523b3ef60405160405180910390a461152181600084611c1f565b5050565b6000600a60009054906101000a900473ffffffffffffffffffffffffffffffffffffffff16905081600a60006101000a81548173ffffffffffffffffffffffffffffffffffffffff021916908373ffffffffffffffffffffffffffffffffffffffff1602179055508173ffffffffffffffffffffffffffffffffffffffff168173ffffffffffffffffffffffffffffffffffffffff167f8be0079c531659141344cd1fd0a4f28419497f9722a3daafe3b4186f6b6457e060405160405180910390a35050565b8173ffffffffffffffffffffffffffffffffffffffff168373ffffffffffffffffffffffffffffffffffffffff1603611659576040517f08c379a0000000000000000000000000000000000000000000000000000000008152600401611650906133e6565b60405180910390fd5b80600560008573ffffffffffffffffffffffffffffffffffffffff1673ffffffffffffffffffffffffffffffffffffffff16815260200190815260200160002060008473ffffffffffffffffffffffffffffffffffffffff1673ffffffffffffffffffffffffffffffffffffffff16815260200190815260200160002060006101000a81548160ff0219169083151502179055508173ffffffffffffffffffffffffffffffffffffffff168373ffffffffffffffffffffffffffffffffffffffff167f17307eab39ab6107e8899845ad3d59bd9653f200f220920489ca2b5937696c318360405161174a91906124e2565b60405180910390a3505050565b6117628484846113f0565b61176e84848484611c24565b6117ad576040517f08c379a00000000000000000000000000000000000000000000000000000000081526004016117a490613478565b60405180910390fd5b50505050565b6117cd828260405180602001604052806000815250611dab565b5050565b60008073ffffffffffffffffffffffffffffffffffffffff166002600084815260200190815260200160002060009054906101000a900473ffffffffffffffffffffffffffffffffffffffff1673ffffffffffffffffffffffffffffffffffffffff1614159050919050565b60007f01ffc9a7000000000000000000000000000000000000000000000000000000007bffffffffffffffffffffffffffffffffffffffffffffffffffffffff1916827bffffffffffffffffffffffffffffffffffffffffffffffffffffffff1916149050919050565b8273ffffffffffffffffffffffffffffffffffffffff166118c782610a8a565b73ffffffffffffffffffffffffffffffffffffffff161461191d576040517f08c379a00000000000000000000000000000000000000000000000000000000081526004016119149061350a565b60405180910390fd5b600073ffffffffffffffffffffffffffffffffffffffff168273ffffffffffffffffffffffffffffffffffffffff160361198c576040517f08c379a00000000000000000000000000000000000000000000000000000000081526004016119839061359c565b60405180910390fd5b611997838383611b0d565b6119a26000826112a2565b6001600360008573ffffffffffffffffffffffffffffffffffffffff1673ffffffffffffffffffffffffffffffffffffffff16815260200190815260200160002060008282546119f29190612e5c565b925050819055506001600360008473ffffffffffffffffffffffffffffffffffffffff1673ffffffffffffffffffffffffffffffffffffffff1681526020019081526020016000206000828254611a499190612ef0565b92505081905550816002600083815260200190815260200160002060006101000a81548173ffffffffffffffffffffffffffffffffffffffff021916908373ffffffffffffffffffffffffffffffffffffffff160217905550808273ffffffffffffffffffffffffffffffffffffffff168473ffffffffffffffffffffffffffffffffffffffff167fddf252ad1be2c89b69c2b068fc378daa952ba7f163c4a11628f55a4df523b3ef60405160405180910390a4611b08838383611c1f565b505050565b611b18838383611e06565b600073ffffffffffffffffffffffffffffffffffffffff168373ffffffffffffffffffffffffffffffffffffffff1603611b5a57611b5581611e0b565b611b99565b8173ffffffffffffffffffffffffffffffffffffffff168373ffffffffffffffffffffffffffffffffffffffff1614611b9857611b978382611e54565b5b5b600073ffffffffffffffffffffffffffffffffffffffff168273ffffffffffffffffffffffffffffffffffffffff1603611bdb57611bd681611fc1565b611c1a565b8273ffffffffffffffffffffffffffffffffffffffff168273ffffffffffffffffffffffffffffffffffffffff1614611c1957611c188282612092565b5b5b505050565b505050565b6000611c458473ffffffffffffffffffffffffffffffffffffffff16612111565b15611d9e578373ffffffffffffffffffffffffffffffffffffffff1663150b7a02611c6e61116d565b8786866040518563ffffffff1660e01b8152600401611c909493929190613600565b6020604051808303816000875af1925050508015611ccc57506040513d601f19601f82011682018060405250810190611cc99190613661565b60015b611d4e573d8060008114611cfc576040519150601f19603f3d011682016040523d82523d6000602084013e611d01565b606091505b506000815103611d46576040517f08c379a0000000000000000000000000000000000000000000000000000000008152600401611d3d90613478565b60405180910390fd5b805181602001fd5b63150b7a0260e01b7bffffffffffffffffffffffffffffffffffffffffffffffffffffffff1916817bffffffffffffffffffffffffffffffffffffffffffffffffffffffff191614915050611da3565b600190505b949350505050565b611db58383612134565b611dc26000848484611c24565b611e01576040517f08c379a0000000000000000000000000000000000000000000000000000000008152600401611df890613478565b60405180910390fd5b505050565b505050565b6008805490506009600083815260200190815260200160002081905550600881908060018154018082558091505060019003906000526020600020016000909190919091505550565b60006001611e6184610b3b565b611e6b9190612e5c565b9050600060076000848152602001908152602001600020549050818114611f50576000600660008673ffffffffffffffffffffffffffffffffffffffff1673ffffffffffffffffffffffffffffffffffffffff168152602001908152602001600020600084815260200190815260200160002054905080600660008773ffffffffffffffffffffffffffffffffffffffff1673ffffffffffffffffffffffffffffffffffffffff168152602001908152602001600020600084815260200190815260200160002081905550816007600083815260200190815260200160002081905550505b6007600084815260200190815260200160002060009055600660008573ffffffffffffffffffffffffffffffffffffffff1673ffffffffffffffffffffffffffffffffffffffff16815260200190815260200160002060008381526020019081526020016000206000905550505050565b60006001600880549050611fd59190612e5c565b905060006009600084815260200190815260200160002054905060006008838154811061200557612004612d00565b5b90600052602060002001549050806008838154811061202757612026612d00565b5b9060005260206000200181905550816009600083815260200190815260200160002081905550600960008581526020019081526020016000206000905560088054806120765761207561368e565b5b6001900381819060005260206000200160009055905550505050565b600061209d83610b3b565b905081600660008573ffffffffffffffffffffffffffffffffffffffff1673ffffffffffffffffffffffffffffffffffffffff168152602001908152602001600020600083815260200190815260200160002081905550806007600084815260200190815260200160002081905550505050565b6000808273ffffffffffffffffffffffffffffffffffffffff163b119050919050565b600073ffffffffffffffffffffffffffffffffffffffff168273ffffffffffffffffffffffffffffffffffffffff16036121a3576040517f08c379a000000000000000000000000000000000000000000000000000000000815260040161219a90613709565b60405180910390fd5b6121ac816117d1565b156121ec576040517f08c379a00000000000000000000000000000000000000000000000000000000081526004016121e390613775565b60405180910390fd5b6121f860008383611b0d565b6001600360008473ffffffffffffffffffffffffffffffffffffffff1673ffffffffffffffffffffffffffffffffffffffff16815260200190815260200160002060008282546122489190612ef0565b92505081905550816002600083815260200190815260200160002060006101000a81548173ffffffffffffffffffffffffffffffffffffffff021916908373ffffffffffffffffffffffffffffffffffffffff160217905550808273ffffffffffffffffffffffffffffffffffffffff16600073ffffffffffffffffffffffffffffffffffffffff167fddf252ad1be2c89b69c2b068fc378daa952ba7f163c4a11628f55a4df523b3ef60405160405180910390a461230960008383611c1f565b5050565b600073ffffffffffffffffffffffffffffffffffffffff82169050919050565b60006123388261230d565b9050919050565b6123488161232d565b82525050565b6000819050919050565b6123618161234e565b82525050565b600060408201905061237c600083018561233f565b6123896020830184612358565b9392505050565b600082825260208201905092915050565b82818337600083830152505050565b6000601f19601f8301169050919050565b60006123cd8385612390565b93506123da8385846123a1565b6123e3836123b0565b840190509392505050565b6000606082019050612403600083018761233f565b6124106020830186612358565b81810360408301526124238184866123c1565b905095945050505050565b6000604051905090565b600080fd5b600080fd5b60007fffffffff0000000000000000000000000000000000000000000000000000000082169050919050565b61247781612442565b811461248257600080fd5b50565b6000813590506124948161246e565b92915050565b6000602082840312156124b0576124af612438565b5b60006124be84828501612485565b91505092915050565b60008115159050919050565b6124dc816124c7565b82525050565b60006020820190506124f760008301846124d3565b92915050565b600081519050919050565b600082825260208201905092915050565b60005b8381101561253757808201518184015260208101905061251c565b60008484015250505050565b600061254e826124fd565b6125588185612508565b9350612568818560208601612519565b612571816123b0565b840191505092915050565b600060208201905081810360008301526125968184612543565b905092915050565b6125a78161232d565b81146125b257600080fd5b50565b6000813590506125c48161259e565b92915050565b6000602082840312156125e0576125df612438565b5b60006125ee848285016125b5565b91505092915050565b6126008161234e565b811461260b57600080fd5b50565b60008135905061261d816125f7565b92915050565b60006020828403121561263957612638612438565b5b60006126478482850161260e565b91505092915050565b6000602082019050612665600083018461233f565b92915050565b6000806040838503121561268257612681612438565b5b6000612690858286016125b5565b92505060206126a18582860161260e565b9150509250929050565b60006020820190506126c06000830184612358565b92915050565b6000806000606084860312156126df576126de612438565b5b60006126ed868287016125b5565b93505060206126fe868287016125b5565b925050604061270f8682870161260e565b9150509250925092565b612722816124c7565b811461272d57600080fd5b50565b60008135905061273f81612719565b92915050565b6000806040838503121561275c5761275b612438565b5b600061276a858286016125b5565b925050602061277b85828601612730565b9150509250929050565b600080fd5b600080fd5b7f4e487b7100000000000000000000000000000000000000000000000000000000600052604160045260246000fd5b6127c7826123b0565b810181811067ffffffffffffffff821117156127e6576127e561278f565b5b80604052505050565b60006127f961242e565b905061280582826127be565b919050565b600067ffffffffffffffff8211156128255761282461278f565b5b61282e826123b0565b9050602081019050919050565b600061284e6128498461280a565b6127ef565b90508281526020810184848401111561286a5761286961278a565b5b6128758482856123a1565b509392505050565b600082601f83011261289257612891612785565b5b81356128a284826020860161283b565b91505092915050565b600080600080608085870312156128c5576128c4612438565b5b60006128d3878288016125b5565b94505060206128e4878288016125b5565b93505060406128f58782880161260e565b925050606085013567ffffffffffffffff8111156129165761291561243d565b5b6129228782880161287d565b91505092959194509250565b600067ffffffffffffffff8211156129495761294861278f565b5b612952826123b0565b9050602081019050919050565b600061297261296d8461292e565b6127ef565b90508281526020810184848401111561298e5761298d61278a565b5b6129998482856123a1565b509392505050565b600082601f8301126129b6576129b5612785565b5b81356129c684826020860161295f565b91505092915050565b6000806000606084860312156129e8576129e7612438565b5b60006129f6868287016125b5565b935050602084013567ffffffffffffffff811115612a1757612a1661243d565b5b612a23868287016129a1565b9250506040612a348682870161260e565b9150509250925092565b60008060408385031215612a5557612a54612438565b5b6000612a63858286016125b5565b9250506020612a74858286016125b5565b9150509250929050565b7f4f776e61626c653a2063616c6c6572206973206e6f7420746865206f776e6572600082015250565b6000612ab4602083612508565b9150612abf82612a7e565b602082019050919050565b60006020820190508181036000830152612ae381612aa7565b9050919050565b7f4e487b7100000000000000000000000000000000000000000000000000000000600052602260045260246000fd5b60006002820490506001821680612b3157607f821691505b602082108103612b4457612b43612aea565b5b50919050565b7f4552433732313a2063616c6c6572206973206e6f7420746f6b656e206f776e6560008201527f72206e6f7220617070726f766564000000000000000000000000000000000000602082015250565b6000612ba6602e83612508565b9150612bb182612b4a565b604082019050919050565b60006020820190508181036000830152612bd581612b99565b9050919050565b7f455243373231456e756d657261626c653a206f776e657220696e646578206f7560008201527f74206f6620626f756e6473000000000000000000000000000000000000000000602082015250565b6000612c38602b83612508565b9150612c4382612bdc565b604082019050919050565b60006020820190508181036000830152612c6781612c2b565b9050919050565b7f455243373231456e756d657261626c653a20676c6f62616c20696e646578206f60008201527f7574206f6620626f756e64730000000000000000000000000000000000000000602082015250565b6000612cca602c83612508565b9150612cd582612c6e565b604082019050919050565b60006020820190508181036000830152612cf981612cbd565b9050919050565b7f4e487b7100000000000000000000000000000000000000000000000000000000600052603260045260246000fd5b7f4552433732313a20696e76616c696420746f6b656e2049440000000000000000600082015250565b6000612d65601883612508565b9150612d7082612d2f565b602082019050919050565b60006020820190508181036000830152612d9481612d58565b9050919050565b7f4552433732313a2061646472657373207a65726f206973206e6f74206120766160008201527f6c6964206f776e65720000000000000000000000000000000000000000000000602082015250565b6000612df7602983612508565b9150612e0282612d9b565b604082019050919050565b60006020820190508181036000830152612e2681612dea565b9050919050565b7f4e487b7100000000000000000000000000000000000000000000000000000000600052601160045260246000fd5b6000612e678261234e565b9150612e728361234e565b9250828203905081811115612e8a57612e89612e2d565b5b92915050565b7f4e487b7100000000000000000000000000000000000000000000000000000000600052601260045260246000fd5b6000612eca8261234e565b9150612ed58361234e565b925082612ee557612ee4612e90565b5b828204905092915050565b6000612efb8261234e565b9150612f068361234e565b9250828201905080821115612f1e57612f1d612e2d565b5b92915050565b7f416e20656d706c6f7965652063616e206f6e6c792068617665203120746f6b6560008201527f6e00000000000000000000000000000000000000000000000000000000000000602082015250565b6000612f80602183612508565b9150612f8b82612f24565b604082019050919050565b60006020820190508181036000830152612faf81612f73565b9050919050565b600081519050612fc5816125f7565b92915050565b600060208284031215612fe157612fe0612438565b5b6000612fef84828501612fb6565b91505092915050565b60008190508160005260206000209050919050565b60006020601f8301049050919050565b600082821b905092915050565b60006008830261305a7fffffffffffffffffffffffffffffffffffffffffffffffffffffffffffffffff8261301d565b613064868361301d565b95508019841693508086168417925050509392505050565b6000819050919050565b60006130a161309c6130978461234e565b61307c565b61234e565b9050919050565b6000819050919050565b6130bb83613086565b6130cf6130c7826130a8565b84845461302a565b825550505050565b600090565b6130e46130d7565b6130ef8184846130b2565b505050565b5b81811015613113576131086000826130dc565b6001810190506130f5565b5050565b601f8211156131585761312981612ff8565b6131328461300d565b81016020851015613141578190505b61315561314d8561300d565b8301826130f4565b50505b505050565b600082821c905092915050565b600061317b6000198460080261315d565b1980831691505092915050565b6000613194838361316a565b9150826002028217905092915050565b6131ad826124fd565b67ffffffffffffffff8111156131c6576131c561278f565b5b6131d08254612b19565b6131db828285613117565b600060209050601f83116001811461320e57600084156131fc578287015190505b6132068582613188565b86555061326e565b601f19841661321c86612ff8565b60005b828110156132445784890151825560018201915060208501945060208101905061321f565b86831015613261578489015161325d601f89168261316a565b8355505b6001600288020188555050505b505050505050565b7f456d706c6f796565436172643a20746f6b656e20646f6573206e6f742065786960008201527f7374000000000000000000000000000000000000000000000000000000000000602082015250565b60006132d2602283612508565b91506132dd82613276565b604082019050919050565b60006020820190508181036000830152613301816132c5565b9050919050565b7f4f776e61626c653a206e6577206f776e657220697320746865207a65726f206160008201527f6464726573730000000000000000000000000000000000000000000000000000602082015250565b6000613364602683612508565b915061336f82613308565b604082019050919050565b6000602082019050818103600083015261339381613357565b9050919050565b7f4552433732313a20617070726f766520746f2063616c6c657200000000000000600082015250565b60006133d0601983612508565b91506133db8261339a565b602082019050919050565b600060208201905081810360008301526133ff816133c3565b9050919050565b7f4552433732313a207472616e7366657220746f206e6f6e20455243373231526560008201527f63656976657220696d706c656d656e7465720000000000000000000000000000602082015250565b6000613462603283612508565b915061346d82613406565b604082019050919050565b6000602082019050818103600083015261349181613455565b9050919050565b7f4552433732313a207472616e736665722066726f6d20696e636f72726563742060008201527f6f776e6572000000000000000000000000000000000000000000000000000000602082015250565b60006134f4602583612508565b91506134ff82613498565b604082019050919050565b60006020820190508181036000830152613523816134e7565b9050919050565b7f4552433732313a207472616e7366657220746f20746865207a65726f2061646460008201527f7265737300000000000000000000000000000000000000000000000000000000602082015250565b6000613586602483612508565b91506135918261352a565b604082019050919050565b600060208201905081810360008301526135b581613579565b9050919050565b600081519050919050565b60006135d2826135bc565b6135dc8185612390565b93506135ec818560208601612519565b6135f5816123b0565b840191505092915050565b6000608082019050613615600083018761233f565b613622602083018661233f565b61362f6040830185612358565b818103606083015261364181846135c7565b905095945050505050565b60008151905061365b8161246e565b92915050565b60006020828403121561367757613676612438565b5b60006136858482850161364c565b91505092915050565b7f4e487b7100000000000000000000000000000000000000000000000000000000600052603160045260246000fd5b7f4552433732313a206d696e7420746f20746865207a65726f2061646472657373600082015250565b60006136f3602083612508565b91506136fe826136bd565b602082019050919050565b60006020820190508181036000830152613722816136e6565b9050919050565b7f4552433732313a20746f6b656e20616c7265616479206d696e74656400000000600082015250565b600061375f601c83612508565b915061376a82613729565b602082019050919050565b6000602082019050818103600083015261378e81613752565b905091905056fea264697066735822122098e40596cb60fbd09cf25f8413960c00c46cb1f954726b097dccf0e1d4fbcd8764736f6c63430008110033",
    "immutableReferences": {},
    "source": "// SPDX-License-Identifier: MIT\npragma solidity ^0.8.17;\n\n// Import of extension for SBT token.\nimport \"./extensions/ERC721EnumerableNonTransferable.sol\";\n// Import of Strings standard\nimport \"@openzeppelin/contracts/utils/Strings.sol\";\n\ncontract EmployeeCard is ERC721EnumerableNonTransferable {\n\n  /**\n   * On chain card data structure.\n   */\n  struct CardData {\n    string tokenURI;\n    uint256 startDate;\n  }\n\n  // Map of cards tokenIds by address of employees.\n  mapping(address => uint256)  private _cards;\n\n  // Map of card data by tokenId.\n  mapping(uint256 => CardData) private _cardsData;\n\n  // Event when tokens are sent.\n  event tokenReceived(address sender, uint256 amount);\n  event callReceived(address sender, uint256 amount, bytes data);\n\n  constructor(string memory name, string memory symbol) ERC721(name, symbol) ERC721EnumerableNonTransferable() {}\n    \n  /**\n   * Gets the URI of the token metadata. Using IPFS URI is highly recommended.\n   */\n  function tokenURI(uint256 tokenId) public view virtual override returns (string memory) {\n    require(_exists(tokenId), \"EmployeeCard: token does not exist\");\n    return string(_cardsData[tokenId].tokenURI);\n  }\n\n  /**\n   * Mint a new employee card SBT token.\n   */\n  function mint(address _recipient, string memory _tokenURI, uint256 _startDate) public onlyOwner returns(uint256) {\n    require(balanceOf(_recipient) == 0, \"An employee can only have 1 token\");\n\n    uint256 tokenId = this.totalSupply();\n    _safeMint(_recipient, tokenId);\n\n    require(_exists(tokenId), \"ERC721: invalid token ID\");\n    _cards[_recipient] = tokenId; \n    _cardsData[tokenId] = CardData(_tokenURI, _startDate);\n    _approve(owner(), tokenId);\n\n    return tokenId;\n  }\n\n  /**\n   * Calculate total amount of days the employee can expect according to its time in the company.\n   */\n   function getEmployeeVacationRights(uint256 tokenId) public view returns(uint256) {\n    _requireMinted(tokenId);\n\n    uint256 nbOfFullYears = (block.timestamp - _cardsData[tokenId].startDate) / 31536000;\n    uint256 nbAdditionalDays = nbOfFullYears/5;\n\n    return 25 + nbAdditionalDays;\n  }\n\n  function burnEmployeeCard(address _holder) public onlyOwner {\n    uint256 tokenId = _cards[_holder];\n    _requireMinted(tokenId);\n\n    burn(tokenId);\n  }\n\n  /**\n   * Make the contract destructible (to remove on prod)\n   */\n  function destruct() public onlyOwner {\n    selfdestruct(payable(owner()));\n  }\n\n  /**\n   * Only the owner should be able to add tokens to this contract.\n   */\n  receive() external payable onlyOwner {\n    emit tokenReceived(msg.sender, msg.value);\n  }\n\n  fallback() external payable onlyOwner {\n    emit callReceived(msg.sender, msg.value, msg.data);\n  }\n\n}",
    "sourcePath": "/Users/bpresles/Projects/TechMaker_NFT_EmployeeCard/contracts/EmployeeCard.sol",
    "compiler": {
        "name": "solc",
        "version": "0.8.17+commit.8df45f5f.Emscripten.clang"
    },
    "schemaVersion": "3.4.10",
    "updatedAt": "2022-10-23T16:57:38.999Z",
    "networkType": "ethereum",
    "devdoc": {
        "kind": "dev",
        "methods": {
            "balanceOf(address)": {
                "details": "See {IERC721-balanceOf}."
            },
            "getApproved(uint256)": {
                "details": "See {IERC721-getApproved}."
            },
            "isApprovedForAll(address,address)": {
                "details": "See {IERC721-isApprovedForAll}."
            },
            "name()": {
                "details": "See {IERC721Metadata-name}."
            },
            "owner()": {
                "details": "Returns the address of the current owner."
            },
            "ownerOf(uint256)": {
                "details": "See {IERC721-ownerOf}."
            },
            "renounceOwnership()": {
                "details": "Leaves the contract without owner. It will not be possible to call `onlyOwner` functions anymore. Can only be called by the current owner. NOTE: Renouncing ownership will leave the contract without an owner, thereby removing any functionality that is only available to the owner."
            },
            "safeTransferFrom(address,address,uint256)": {
                "details": "See {IERC721-safeTransferFrom}."
            },
            "safeTransferFrom(address,address,uint256,bytes)": {
                "details": "See {IERC721-safeTransferFrom}."
            },
            "setApprovalForAll(address,bool)": {
                "details": "See {IERC721-setApprovalForAll}."
            },
            "supportsInterface(bytes4)": {
                "details": "See {IERC165-supportsInterface}."
            },
            "symbol()": {
                "details": "See {IERC721Metadata-symbol}."
            },
            "tokenByIndex(uint256)": {
                "details": "See {IERC721Enumerable-tokenByIndex}."
            },
            "tokenOfOwnerByIndex(address,uint256)": {
                "details": "See {IERC721Enumerable-tokenOfOwnerByIndex}."
            },
            "totalSupply()": {
                "details": "See {IERC721Enumerable-totalSupply}."
            },
            "transferFrom(address,address,uint256)": {
                "details": "See {IERC721-transferFrom}."
            },
            "transferOwnership(address)": {
                "details": "Transfers ownership of the contract to a new account (`newOwner`). Can only be called by the current owner."
            }
        },
        "version": 1
    },
    "userdoc": {
        "kind": "user",
        "methods": {
            "approve(address,uint256)": {
                "notice": "Ensure that approvals are only allowed for contract owner."
            },
            "burn(uint256)": {
                "notice": "Ensure that burn is only accepted for contract owner. "
            },
            "destruct()": {
                "notice": "Make the contract destructible (to remove on prod)"
            },
            "getEmployeeVacationRights(uint256)": {
                "notice": "Calculate total amount of days the employee can expect according to its time in the company."
            },
            "mint(address,string,uint256)": {
                "notice": "Mint a new employee card SBT token."
            },
            "tokenURI(uint256)": {
                "notice": "Gets the URI of the token metadata. Using IPFS URI is highly recommended."
            }
        },
        "version": 1
    }
}