{
  "contractName": "EmployeeCardFactory",
  "abi": [
    {
      "inputs": [],
      "stateMutability": "nonpayable",
      "type": "constructor"
    },
    {
      "anonymous": false,
      "inputs": [
        {
          "indexed": true,
          "internalType": "address",
          "name": "owner",
          "type": "address"
        },
        {
          "indexed": true,
          "internalType": "address",
          "name": "approved",
          "type": "address"
        },
        {
          "indexed": true,
          "internalType": "uint256",
          "name": "tokenId",
          "type": "uint256"
        }
      ],
      "name": "Approval",
      "type": "event"
    },
    {
      "anonymous": false,
      "inputs": [
        {
          "indexed": true,
          "internalType": "address",
          "name": "owner",
          "type": "address"
        },
        {
          "indexed": true,
          "internalType": "address",
          "name": "operator",
          "type": "address"
        },
        {
          "indexed": false,
          "internalType": "bool",
          "name": "approved",
          "type": "bool"
        }
      ],
      "name": "ApprovalForAll",
      "type": "event"
    },
    {
      "anonymous": false,
      "inputs": [
        {
          "indexed": true,
          "internalType": "address",
          "name": "previousOwner",
          "type": "address"
        },
        {
          "indexed": true,
          "internalType": "address",
          "name": "newOwner",
          "type": "address"
        }
      ],
      "name": "OwnershipTransferred",
      "type": "event"
    },
    {
      "anonymous": false,
      "inputs": [
        {
          "indexed": true,
          "internalType": "address",
          "name": "from",
          "type": "address"
        },
        {
          "indexed": true,
          "internalType": "address",
          "name": "to",
          "type": "address"
        },
        {
          "indexed": true,
          "internalType": "uint256",
          "name": "tokenId",
          "type": "uint256"
        }
      ],
      "name": "Transfer",
      "type": "event"
    },
    {
      "inputs": [
        {
          "internalType": "address",
          "name": "to",
          "type": "address"
        },
        {
          "internalType": "uint256",
          "name": "tokenId",
          "type": "uint256"
        }
      ],
      "name": "approve",
      "outputs": [],
      "stateMutability": "nonpayable",
      "type": "function"
    },
    {
      "inputs": [
        {
          "internalType": "address",
          "name": "owner",
          "type": "address"
        }
      ],
      "name": "balanceOf",
      "outputs": [
        {
          "internalType": "uint256",
          "name": "",
          "type": "uint256"
        }
      ],
      "stateMutability": "view",
      "type": "function"
    },
    {
      "inputs": [
        {
          "internalType": "uint256",
          "name": "tokenId",
          "type": "uint256"
        }
      ],
      "name": "burn",
      "outputs": [],
      "stateMutability": "nonpayable",
      "type": "function"
    },
    {
      "inputs": [],
      "name": "destruct",
      "outputs": [],
      "stateMutability": "nonpayable",
      "type": "function"
    },
    {
      "inputs": [
        {
          "internalType": "uint256",
          "name": "tokenId",
          "type": "uint256"
        }
      ],
      "name": "getApproved",
      "outputs": [
        {
          "internalType": "address",
          "name": "",
          "type": "address"
        }
      ],
      "stateMutability": "view",
      "type": "function"
    },
    {
      "inputs": [
        {
          "internalType": "uint256",
          "name": "tokenId",
          "type": "uint256"
        }
      ],
      "name": "getEmployeeVacationRights",
      "outputs": [
        {
          "internalType": "uint256",
          "name": "",
          "type": "uint256"
        }
      ],
      "stateMutability": "view",
      "type": "function"
    },
    {
      "inputs": [
        {
          "internalType": "address",
          "name": "owner",
          "type": "address"
        },
        {
          "internalType": "address",
          "name": "operator",
          "type": "address"
        }
      ],
      "name": "isApprovedForAll",
      "outputs": [
        {
          "internalType": "bool",
          "name": "",
          "type": "bool"
        }
      ],
      "stateMutability": "view",
      "type": "function"
    },
    {
      "inputs": [
        {
          "internalType": "address",
          "name": "recipient",
          "type": "address"
        },
        {
          "internalType": "string",
          "name": "_tokenURI",
          "type": "string"
        },
        {
          "internalType": "uint256",
          "name": "_startDate",
          "type": "uint256"
        }
      ],
      "name": "mint",
      "outputs": [
        {
          "internalType": "uint256",
          "name": "",
          "type": "uint256"
        }
      ],
      "stateMutability": "nonpayable",
      "type": "function"
    },
    {
      "inputs": [],
      "name": "name",
      "outputs": [
        {
          "internalType": "string",
          "name": "",
          "type": "string"
        }
      ],
      "stateMutability": "view",
      "type": "function"
    },
    {
      "inputs": [],
      "name": "owner",
      "outputs": [
        {
          "internalType": "address",
          "name": "",
          "type": "address"
        }
      ],
      "stateMutability": "view",
      "type": "function"
    },
    {
      "inputs": [
        {
          "internalType": "uint256",
          "name": "tokenId",
          "type": "uint256"
        }
      ],
      "name": "ownerOf",
      "outputs": [
        {
          "internalType": "address",
          "name": "",
          "type": "address"
        }
      ],
      "stateMutability": "view",
      "type": "function"
    },
    {
      "inputs": [],
      "name": "renounceOwnership",
      "outputs": [],
      "stateMutability": "nonpayable",
      "type": "function"
    },
    {
      "inputs": [
        {
          "internalType": "address",
          "name": "from",
          "type": "address"
        },
        {
          "internalType": "address",
          "name": "to",
          "type": "address"
        },
        {
          "internalType": "uint256",
          "name": "tokenId",
          "type": "uint256"
        }
      ],
      "name": "safeTransferFrom",
      "outputs": [],
      "stateMutability": "nonpayable",
      "type": "function"
    },
    {
      "inputs": [
        {
          "internalType": "address",
          "name": "from",
          "type": "address"
        },
        {
          "internalType": "address",
          "name": "to",
          "type": "address"
        },
        {
          "internalType": "uint256",
          "name": "tokenId",
          "type": "uint256"
        },
        {
          "internalType": "bytes",
          "name": "data",
          "type": "bytes"
        }
      ],
      "name": "safeTransferFrom",
      "outputs": [],
      "stateMutability": "nonpayable",
      "type": "function"
    },
    {
      "inputs": [
        {
          "internalType": "address",
          "name": "operator",
          "type": "address"
        },
        {
          "internalType": "bool",
          "name": "approved",
          "type": "bool"
        }
      ],
      "name": "setApprovalForAll",
      "outputs": [],
      "stateMutability": "nonpayable",
      "type": "function"
    },
    {
      "inputs": [
        {
          "internalType": "bytes4",
          "name": "interfaceId",
          "type": "bytes4"
        }
      ],
      "name": "supportsInterface",
      "outputs": [
        {
          "internalType": "bool",
          "name": "",
          "type": "bool"
        }
      ],
      "stateMutability": "view",
      "type": "function"
    },
    {
      "inputs": [],
      "name": "symbol",
      "outputs": [
        {
          "internalType": "string",
          "name": "",
          "type": "string"
        }
      ],
      "stateMutability": "view",
      "type": "function"
    },
    {
      "inputs": [
        {
          "internalType": "uint256",
          "name": "index",
          "type": "uint256"
        }
      ],
      "name": "tokenByIndex",
      "outputs": [
        {
          "internalType": "uint256",
          "name": "",
          "type": "uint256"
        }
      ],
      "stateMutability": "view",
      "type": "function"
    },
    {
      "inputs": [
        {
          "internalType": "address",
          "name": "owner",
          "type": "address"
        },
        {
          "internalType": "uint256",
          "name": "index",
          "type": "uint256"
        }
      ],
      "name": "tokenOfOwnerByIndex",
      "outputs": [
        {
          "internalType": "uint256",
          "name": "",
          "type": "uint256"
        }
      ],
      "stateMutability": "view",
      "type": "function"
    },
    {
      "inputs": [
        {
          "internalType": "uint256",
          "name": "tokenId",
          "type": "uint256"
        }
      ],
      "name": "tokenURI",
      "outputs": [
        {
          "internalType": "string",
          "name": "",
          "type": "string"
        }
      ],
      "stateMutability": "view",
      "type": "function"
    },
    {
      "inputs": [],
      "name": "totalSupply",
      "outputs": [
        {
          "internalType": "uint256",
          "name": "",
          "type": "uint256"
        }
      ],
      "stateMutability": "view",
      "type": "function"
    },
    {
      "inputs": [
        {
          "internalType": "address",
          "name": "from",
          "type": "address"
        },
        {
          "internalType": "address",
          "name": "to",
          "type": "address"
        },
        {
          "internalType": "uint256",
          "name": "tokenId",
          "type": "uint256"
        }
      ],
      "name": "transferFrom",
      "outputs": [],
      "stateMutability": "nonpayable",
      "type": "function"
    },
    {
      "inputs": [
        {
          "internalType": "address",
          "name": "newOwner",
          "type": "address"
        }
      ],
      "name": "transferOwnership",
      "outputs": [],
      "stateMutability": "nonpayable",
      "type": "function"
    }
  ],
  "bytecode": "0x60806040523480156200001157600080fd5b506040518060400160405280601481526020017f596f756e757020456d706c6f79656520436172640000000000000000000000008152506040518060400160405280600481526020017f594e5043000000000000000000000000000000000000000000000000000000008152508181816000908162000091919062000416565b508060019081620000a3919062000416565b505050620000c6620000ba620000ce60201b60201c565b620000d660201b60201c565b5050620004fd565b600033905090565b6000600a60009054906101000a900473ffffffffffffffffffffffffffffffffffffffff16905081600a60006101000a81548173ffffffffffffffffffffffffffffffffffffffff021916908373ffffffffffffffffffffffffffffffffffffffff1602179055508173ffffffffffffffffffffffffffffffffffffffff168173ffffffffffffffffffffffffffffffffffffffff167f8be0079c531659141344cd1fd0a4f28419497f9722a3daafe3b4186f6b6457e060405160405180910390a35050565b600081519050919050565b7f4e487b7100000000000000000000000000000000000000000000000000000000600052604160045260246000fd5b7f4e487b7100000000000000000000000000000000000000000000000000000000600052602260045260246000fd5b600060028204905060018216806200021e57607f821691505b602082108103620002345762000233620001d6565b5b50919050565b60008190508160005260206000209050919050565b60006020601f8301049050919050565b600082821b905092915050565b6000600883026200029e7fffffffffffffffffffffffffffffffffffffffffffffffffffffffffffffffff826200025f565b620002aa86836200025f565b95508019841693508086168417925050509392505050565b6000819050919050565b6000819050919050565b6000620002f7620002f1620002eb84620002c2565b620002cc565b620002c2565b9050919050565b6000819050919050565b6200031383620002d6565b6200032b6200032282620002fe565b8484546200026c565b825550505050565b600090565b6200034262000333565b6200034f81848462000308565b505050565b5b8181101562000377576200036b60008262000338565b60018101905062000355565b5050565b601f821115620003c65762000390816200023a565b6200039b846200024f565b81016020851015620003ab578190505b620003c3620003ba856200024f565b83018262000354565b50505b505050565b600082821c905092915050565b6000620003eb60001984600802620003cb565b1980831691505092915050565b6000620004068383620003d8565b9150826002028217905092915050565b62000421826200019c565b67ffffffffffffffff8111156200043d576200043c620001a7565b5b62000449825462000205565b620004568282856200037b565b600060209050601f8311600181146200048e576000841562000479578287015190505b620004858582620003f8565b865550620004f5565b601f1984166200049e866200023a565b60005b82811015620004c857848901518255600182019150602085019450602081019050620004a1565b86831015620004e85784890151620004e4601f891682620003d8565b8355505b6001600288020188555050505b505050505050565b6133b9806200050d6000396000f3fe608060405234801561001057600080fd5b506004361061014d5760003560e01c80636352211e116100c3578063a22cb4651161007c578063a22cb4651461039e578063b88d4fde146103ba578063ba7aef43146103d6578063c87b56dd14610406578063e985e9c514610436578063f2fde38b146104665761014d565b80636352211e146102c857806370a08231146102f8578063715018a6146103285780638da5cb5b1461033257806395d89b41146103505780639f4b667c1461036e5761014d565b806323b872dd1161011557806323b872dd1461020a5780632b68b9c6146102265780632f745c591461023057806342842e0e1461026057806342966c681461027c5780634f6ccce7146102985761014d565b806301ffc9a71461015257806306fdde0314610182578063081812fc146101a0578063095ea7b3146101d057806318160ddd146101ec575b600080fd5b61016c6004803603810190610167919061208f565b610482565b60405161017991906120d7565b60405180910390f35b61018a6104fc565b6040516101979190612182565b60405180910390f35b6101ba60048036038101906101b591906121da565b61058e565b6040516101c79190612248565b60405180910390f35b6101ea60048036038101906101e5919061228f565b6105d4565b005b6101f46105ea565b60405161020191906122de565b60405180910390f35b610224600480360381019061021f91906122f9565b6105f7565b005b61022e610657565b005b61024a6004803603810190610245919061228f565b61067f565b60405161025791906122de565b60405180910390f35b61027a600480360381019061027591906122f9565b610724565b005b610296600480360381019061029191906121da565b610744565b005b6102b260048036038101906102ad91906121da565b610758565b6040516102bf91906122de565b60405180910390f35b6102e260048036038101906102dd91906121da565b6107c9565b6040516102ef9190612248565b60405180910390f35b610312600480360381019061030d919061234c565b61087a565b60405161031f91906122de565b60405180910390f35b610330610931565b005b61033a610945565b6040516103479190612248565b60405180910390f35b61035861096f565b6040516103659190612182565b60405180910390f35b610388600480360381019061038391906121da565b610a01565b60405161039591906122de565b60405180910390f35b6103b860048036038101906103b391906123a5565b610a65565b005b6103d460048036038101906103cf919061251a565b610a7b565b005b6103f060048036038101906103eb919061263e565b610add565b6040516103fd91906122de565b60405180910390f35b610420600480360381019061041b91906121da565b610c01565b60405161042d9190612182565b60405180910390f35b610450600480360381019061044b91906126ad565b610cee565b60405161045d91906120d7565b60405180910390f35b610480600480360381019061047b919061234c565b610d82565b005b60007f780e9d63000000000000000000000000000000000000000000000000000000007bffffffffffffffffffffffffffffffffffffffffffffffffffffffff1916827bffffffffffffffffffffffffffffffffffffffffffffffffffffffff191614806104f557506104f482610e05565b5b9050919050565b60606000805461050b9061271c565b80601f01602080910402602001604051908101604052809291908181526020018280546105379061271c565b80156105845780601f1061055957610100808354040283529160200191610584565b820191906000526020600020905b81548152906001019060200180831161056757829003601f168201915b5050505050905090565b600061059982610ee7565b6004600083815260200190815260200160002060009054906101000a900473ffffffffffffffffffffffffffffffffffffffff169050919050565b6105dc610f32565b6105e68282610fb0565b5050565b6000600880549050905090565b610608610602611069565b82611071565b610647576040517f08c379a000000000000000000000000000000000000000000000000000000000815260040161063e906127bf565b60405180910390fd5b610652838383611106565b505050565b61065f610f32565b610667610945565b73ffffffffffffffffffffffffffffffffffffffff16ff5b600061068a8361087a565b82106106cb576040517f08c379a00000000000000000000000000000000000000000000000000000000081526004016106c290612851565b60405180910390fd5b600660008473ffffffffffffffffffffffffffffffffffffffff1673ffffffffffffffffffffffffffffffffffffffff168152602001908152602001600020600083815260200190815260200160002054905092915050565b61073f83838360405180602001604052806000815250610a7b565b505050565b61074c610f32565b6107558161111e565b50565b60006107626105ea565b82106107a3576040517f08c379a000000000000000000000000000000000000000000000000000000000815260040161079a906128e3565b60405180910390fd5b600882815481106107b7576107b6612903565b5b90600052602060002001549050919050565b6000806002600084815260200190815260200160002060009054906101000a900473ffffffffffffffffffffffffffffffffffffffff169050600073ffffffffffffffffffffffffffffffffffffffff168173ffffffffffffffffffffffffffffffffffffffff1603610871576040517f08c379a00000000000000000000000000000000000000000000000000000000081526004016108689061297e565b60405180910390fd5b80915050919050565b60008073ffffffffffffffffffffffffffffffffffffffff168273ffffffffffffffffffffffffffffffffffffffff16036108ea576040517f08c379a00000000000000000000000000000000000000000000000000000000081526004016108e190612a10565b60405180910390fd5b600360008373ffffffffffffffffffffffffffffffffffffffff1673ffffffffffffffffffffffffffffffffffffffff168152602001908152602001600020549050919050565b610939610f32565b610943600061123b565b565b6000600a60009054906101000a900473ffffffffffffffffffffffffffffffffffffffff16905090565b60606001805461097e9061271c565b80601f01602080910402602001604051908101604052809291908181526020018280546109aa9061271c565b80156109f75780601f106109cc576101008083540402835291602001916109f7565b820191906000526020600020905b8154815290600101906020018083116109da57829003601f168201915b5050505050905090565b6000610a0c82610ee7565b60006301e13380600c60008581526020019081526020016000205442610a329190612a5f565b610a3c9190612ac2565b90506000600282610a4d9190612ac2565b9050806019610a5c9190612af3565b92505050919050565b610a77610a70611069565b8383611301565b5050565b610a8c610a86611069565b83611071565b610acb576040517f08c379a0000000000000000000000000000000000000000000000000000000008152600401610ac2906127bf565b60405180910390fd5b610ad78484848461146d565b50505050565b6000610ae7610f32565b60003073ffffffffffffffffffffffffffffffffffffffff166318160ddd6040518163ffffffff1660e01b8152600401602060405180830381865afa158015610b34573d6000803e3d6000fd5b505050506040513d601f19601f82011682018060405250810190610b589190612b3c565b9050610b6485826114c9565b610b6d816114e7565b610bac576040517f08c379a0000000000000000000000000000000000000000000000000000000008152600401610ba39061297e565b60405180910390fd5b83600b60008381526020019081526020016000209081610bcc9190612d15565b5082600c600083815260200190815260200160002081905550610bf6610bf0610945565b82610fb0565b809150509392505050565b6060610c0c826114e7565b610c4b576040517f08c379a0000000000000000000000000000000000000000000000000000000008152600401610c4290612e59565b60405180910390fd5b600b60008381526020019081526020016000208054610c699061271c565b80601f0160208091040260200160405190810160405280929190818152602001828054610c959061271c565b8015610ce25780601f10610cb757610100808354040283529160200191610ce2565b820191906000526020600020905b815481529060010190602001808311610cc557829003601f168201915b50505050509050919050565b6000600560008473ffffffffffffffffffffffffffffffffffffffff1673ffffffffffffffffffffffffffffffffffffffff16815260200190815260200160002060008373ffffffffffffffffffffffffffffffffffffffff1673ffffffffffffffffffffffffffffffffffffffff16815260200190815260200160002060009054906101000a900460ff16905092915050565b610d8a610f32565b600073ffffffffffffffffffffffffffffffffffffffff168173ffffffffffffffffffffffffffffffffffffffff1603610df9576040517f08c379a0000000000000000000000000000000000000000000000000000000008152600401610df090612eeb565b60405180910390fd5b610e028161123b565b50565b60007f80ac58cd000000000000000000000000000000000000000000000000000000007bffffffffffffffffffffffffffffffffffffffffffffffffffffffff1916827bffffffffffffffffffffffffffffffffffffffffffffffffffffffff19161480610ed057507f5b5e139f000000000000000000000000000000000000000000000000000000007bffffffffffffffffffffffffffffffffffffffffffffffffffffffff1916827bffffffffffffffffffffffffffffffffffffffffffffffffffffffff1916145b80610ee05750610edf82611553565b5b9050919050565b610ef0816114e7565b610f2f576040517f08c379a0000000000000000000000000000000000000000000000000000000008152600401610f269061297e565b60405180910390fd5b50565b610f3a611069565b73ffffffffffffffffffffffffffffffffffffffff16610f58610945565b73ffffffffffffffffffffffffffffffffffffffff1614610fae576040517f08c379a0000000000000000000000000000000000000000000000000000000008152600401610fa590612f57565b60405180910390fd5b565b816004600083815260200190815260200160002060006101000a81548173ffffffffffffffffffffffffffffffffffffffff021916908373ffffffffffffffffffffffffffffffffffffffff160217905550808273ffffffffffffffffffffffffffffffffffffffff16611023836107c9565b73ffffffffffffffffffffffffffffffffffffffff167f8c5be1e5ebec7d5bd14f71427d1e84f3dd0314c0f7b2291e5b200ac8c7c3b92560405160405180910390a45050565b600033905090565b60008061107d836107c9565b90508073ffffffffffffffffffffffffffffffffffffffff168473ffffffffffffffffffffffffffffffffffffffff1614806110bf57506110be8185610cee565b5b806110fd57508373ffffffffffffffffffffffffffffffffffffffff166110e58461058e565b73ffffffffffffffffffffffffffffffffffffffff16145b91505092915050565b61110e610f32565b6111198383836115bd565b505050565b6000611129826107c9565b905061113781600084611823565b611142600083610fb0565b6001600360008373ffffffffffffffffffffffffffffffffffffffff1673ffffffffffffffffffffffffffffffffffffffff16815260200190815260200160002060008282546111929190612a5f565b925050819055506002600083815260200190815260200160002060006101000a81549073ffffffffffffffffffffffffffffffffffffffff021916905581600073ffffffffffffffffffffffffffffffffffffffff168273ffffffffffffffffffffffffffffffffffffffff167fddf252ad1be2c89b69c2b068fc378daa952ba7f163c4a11628f55a4df523b3ef60405160405180910390a461123781600084611935565b5050565b6000600a60009054906101000a900473ffffffffffffffffffffffffffffffffffffffff16905081600a60006101000a81548173ffffffffffffffffffffffffffffffffffffffff021916908373ffffffffffffffffffffffffffffffffffffffff1602179055508173ffffffffffffffffffffffffffffffffffffffff168173ffffffffffffffffffffffffffffffffffffffff167f8be0079c531659141344cd1fd0a4f28419497f9722a3daafe3b4186f6b6457e060405160405180910390a35050565b8173ffffffffffffffffffffffffffffffffffffffff168373ffffffffffffffffffffffffffffffffffffffff160361136f576040517f08c379a000000000000000000000000000000000000000000000000000000000815260040161136690612fc3565b60405180910390fd5b80600560008573ffffffffffffffffffffffffffffffffffffffff1673ffffffffffffffffffffffffffffffffffffffff16815260200190815260200160002060008473ffffffffffffffffffffffffffffffffffffffff1673ffffffffffffffffffffffffffffffffffffffff16815260200190815260200160002060006101000a81548160ff0219169083151502179055508173ffffffffffffffffffffffffffffffffffffffff168373ffffffffffffffffffffffffffffffffffffffff167f17307eab39ab6107e8899845ad3d59bd9653f200f220920489ca2b5937696c318360405161146091906120d7565b60405180910390a3505050565b611478848484611106565b6114848484848461193a565b6114c3576040517f08c379a00000000000000000000000000000000000000000000000000000000081526004016114ba90613055565b60405180910390fd5b50505050565b6114e3828260405180602001604052806000815250611ac1565b5050565b60008073ffffffffffffffffffffffffffffffffffffffff166002600084815260200190815260200160002060009054906101000a900473ffffffffffffffffffffffffffffffffffffffff1673ffffffffffffffffffffffffffffffffffffffff1614159050919050565b60007f01ffc9a7000000000000000000000000000000000000000000000000000000007bffffffffffffffffffffffffffffffffffffffffffffffffffffffff1916827bffffffffffffffffffffffffffffffffffffffffffffffffffffffff1916149050919050565b8273ffffffffffffffffffffffffffffffffffffffff166115dd826107c9565b73ffffffffffffffffffffffffffffffffffffffff1614611633576040517f08c379a000000000000000000000000000000000000000000000000000000000815260040161162a906130e7565b60405180910390fd5b600073ffffffffffffffffffffffffffffffffffffffff168273ffffffffffffffffffffffffffffffffffffffff16036116a2576040517f08c379a000000000000000000000000000000000000000000000000000000000815260040161169990613179565b60405180910390fd5b6116ad838383611823565b6116b8600082610fb0565b6001600360008573ffffffffffffffffffffffffffffffffffffffff1673ffffffffffffffffffffffffffffffffffffffff16815260200190815260200160002060008282546117089190612a5f565b925050819055506001600360008473ffffffffffffffffffffffffffffffffffffffff1673ffffffffffffffffffffffffffffffffffffffff168152602001908152602001600020600082825461175f9190612af3565b92505081905550816002600083815260200190815260200160002060006101000a81548173ffffffffffffffffffffffffffffffffffffffff021916908373ffffffffffffffffffffffffffffffffffffffff160217905550808273ffffffffffffffffffffffffffffffffffffffff168473ffffffffffffffffffffffffffffffffffffffff167fddf252ad1be2c89b69c2b068fc378daa952ba7f163c4a11628f55a4df523b3ef60405160405180910390a461181e838383611935565b505050565b61182e838383611b1c565b600073ffffffffffffffffffffffffffffffffffffffff168373ffffffffffffffffffffffffffffffffffffffff16036118705761186b81611b21565b6118af565b8173ffffffffffffffffffffffffffffffffffffffff168373ffffffffffffffffffffffffffffffffffffffff16146118ae576118ad8382611b6a565b5b5b600073ffffffffffffffffffffffffffffffffffffffff168273ffffffffffffffffffffffffffffffffffffffff16036118f1576118ec81611cd7565b611930565b8273ffffffffffffffffffffffffffffffffffffffff168273ffffffffffffffffffffffffffffffffffffffff161461192f5761192e8282611da8565b5b5b505050565b505050565b600061195b8473ffffffffffffffffffffffffffffffffffffffff16611e27565b15611ab4578373ffffffffffffffffffffffffffffffffffffffff1663150b7a02611984611069565b8786866040518563ffffffff1660e01b81526004016119a694939291906131ee565b6020604051808303816000875af19250505080156119e257506040513d601f19601f820116820180604052508101906119df919061324f565b60015b611a64573d8060008114611a12576040519150601f19603f3d011682016040523d82523d6000602084013e611a17565b606091505b506000815103611a5c576040517f08c379a0000000000000000000000000000000000000000000000000000000008152600401611a5390613055565b60405180910390fd5b805181602001fd5b63150b7a0260e01b7bffffffffffffffffffffffffffffffffffffffffffffffffffffffff1916817bffffffffffffffffffffffffffffffffffffffffffffffffffffffff191614915050611ab9565b600190505b949350505050565b611acb8383611e4a565b611ad8600084848461193a565b611b17576040517f08c379a0000000000000000000000000000000000000000000000000000000008152600401611b0e90613055565b60405180910390fd5b505050565b505050565b6008805490506009600083815260200190815260200160002081905550600881908060018154018082558091505060019003906000526020600020016000909190919091505550565b60006001611b778461087a565b611b819190612a5f565b9050600060076000848152602001908152602001600020549050818114611c66576000600660008673ffffffffffffffffffffffffffffffffffffffff1673ffffffffffffffffffffffffffffffffffffffff168152602001908152602001600020600084815260200190815260200160002054905080600660008773ffffffffffffffffffffffffffffffffffffffff1673ffffffffffffffffffffffffffffffffffffffff168152602001908152602001600020600084815260200190815260200160002081905550816007600083815260200190815260200160002081905550505b6007600084815260200190815260200160002060009055600660008573ffffffffffffffffffffffffffffffffffffffff1673ffffffffffffffffffffffffffffffffffffffff16815260200190815260200160002060008381526020019081526020016000206000905550505050565b60006001600880549050611ceb9190612a5f565b9050600060096000848152602001908152602001600020549050600060088381548110611d1b57611d1a612903565b5b906000526020600020015490508060088381548110611d3d57611d3c612903565b5b906000526020600020018190555081600960008381526020019081526020016000208190555060096000858152602001908152602001600020600090556008805480611d8c57611d8b61327c565b5b6001900381819060005260206000200160009055905550505050565b6000611db38361087a565b905081600660008573ffffffffffffffffffffffffffffffffffffffff1673ffffffffffffffffffffffffffffffffffffffff168152602001908152602001600020600083815260200190815260200160002081905550806007600084815260200190815260200160002081905550505050565b6000808273ffffffffffffffffffffffffffffffffffffffff163b119050919050565b600073ffffffffffffffffffffffffffffffffffffffff168273ffffffffffffffffffffffffffffffffffffffff1603611eb9576040517f08c379a0000000000000000000000000000000000000000000000000000000008152600401611eb0906132f7565b60405180910390fd5b611ec2816114e7565b15611f02576040517f08c379a0000000000000000000000000000000000000000000000000000000008152600401611ef990613363565b60405180910390fd5b611f0e60008383611823565b6001600360008473ffffffffffffffffffffffffffffffffffffffff1673ffffffffffffffffffffffffffffffffffffffff1681526020019081526020016000206000828254611f5e9190612af3565b92505081905550816002600083815260200190815260200160002060006101000a81548173ffffffffffffffffffffffffffffffffffffffff021916908373ffffffffffffffffffffffffffffffffffffffff160217905550808273ffffffffffffffffffffffffffffffffffffffff16600073ffffffffffffffffffffffffffffffffffffffff167fddf252ad1be2c89b69c2b068fc378daa952ba7f163c4a11628f55a4df523b3ef60405160405180910390a461201f60008383611935565b5050565b6000604051905090565b600080fd5b600080fd5b60007fffffffff0000000000000000000000000000000000000000000000000000000082169050919050565b61206c81612037565b811461207757600080fd5b50565b60008135905061208981612063565b92915050565b6000602082840312156120a5576120a461202d565b5b60006120b38482850161207a565b91505092915050565b60008115159050919050565b6120d1816120bc565b82525050565b60006020820190506120ec60008301846120c8565b92915050565b600081519050919050565b600082825260208201905092915050565b60005b8381101561212c578082015181840152602081019050612111565b60008484015250505050565b6000601f19601f8301169050919050565b6000612154826120f2565b61215e81856120fd565b935061216e81856020860161210e565b61217781612138565b840191505092915050565b6000602082019050818103600083015261219c8184612149565b905092915050565b6000819050919050565b6121b7816121a4565b81146121c257600080fd5b50565b6000813590506121d4816121ae565b92915050565b6000602082840312156121f0576121ef61202d565b5b60006121fe848285016121c5565b91505092915050565b600073ffffffffffffffffffffffffffffffffffffffff82169050919050565b600061223282612207565b9050919050565b61224281612227565b82525050565b600060208201905061225d6000830184612239565b92915050565b61226c81612227565b811461227757600080fd5b50565b60008135905061228981612263565b92915050565b600080604083850312156122a6576122a561202d565b5b60006122b48582860161227a565b92505060206122c5858286016121c5565b9150509250929050565b6122d8816121a4565b82525050565b60006020820190506122f360008301846122cf565b92915050565b6000806000606084860312156123125761231161202d565b5b60006123208682870161227a565b93505060206123318682870161227a565b9250506040612342868287016121c5565b9150509250925092565b6000602082840312156123625761236161202d565b5b60006123708482850161227a565b91505092915050565b612382816120bc565b811461238d57600080fd5b50565b60008135905061239f81612379565b92915050565b600080604083850312156123bc576123bb61202d565b5b60006123ca8582860161227a565b92505060206123db85828601612390565b9150509250929050565b600080fd5b600080fd5b7f4e487b7100000000000000000000000000000000000000000000000000000000600052604160045260246000fd5b61242782612138565b810181811067ffffffffffffffff82111715612446576124456123ef565b5b80604052505050565b6000612459612023565b9050612465828261241e565b919050565b600067ffffffffffffffff821115612485576124846123ef565b5b61248e82612138565b9050602081019050919050565b82818337600083830152505050565b60006124bd6124b88461246a565b61244f565b9050828152602081018484840111156124d9576124d86123ea565b5b6124e484828561249b565b509392505050565b600082601f830112612501576125006123e5565b5b81356125118482602086016124aa565b91505092915050565b600080600080608085870312156125345761253361202d565b5b60006125428782880161227a565b94505060206125538782880161227a565b9350506040612564878288016121c5565b925050606085013567ffffffffffffffff81111561258557612584612032565b5b612591878288016124ec565b91505092959194509250565b600067ffffffffffffffff8211156125b8576125b76123ef565b5b6125c182612138565b9050602081019050919050565b60006125e16125dc8461259d565b61244f565b9050828152602081018484840111156125fd576125fc6123ea565b5b61260884828561249b565b509392505050565b600082601f830112612625576126246123e5565b5b81356126358482602086016125ce565b91505092915050565b6000806000606084860312156126575761265661202d565b5b60006126658682870161227a565b935050602084013567ffffffffffffffff81111561268657612685612032565b5b61269286828701612610565b92505060406126a3868287016121c5565b9150509250925092565b600080604083850312156126c4576126c361202d565b5b60006126d28582860161227a565b92505060206126e38582860161227a565b9150509250929050565b7f4e487b7100000000000000000000000000000000000000000000000000000000600052602260045260246000fd5b6000600282049050600182168061273457607f821691505b602082108103612747576127466126ed565b5b50919050565b7f4552433732313a2063616c6c6572206973206e6f7420746f6b656e206f776e6560008201527f72206e6f7220617070726f766564000000000000000000000000000000000000602082015250565b60006127a9602e836120fd565b91506127b48261274d565b604082019050919050565b600060208201905081810360008301526127d88161279c565b9050919050565b7f455243373231456e756d657261626c653a206f776e657220696e646578206f7560008201527f74206f6620626f756e6473000000000000000000000000000000000000000000602082015250565b600061283b602b836120fd565b9150612846826127df565b604082019050919050565b6000602082019050818103600083015261286a8161282e565b9050919050565b7f455243373231456e756d657261626c653a20676c6f62616c20696e646578206f60008201527f7574206f6620626f756e64730000000000000000000000000000000000000000602082015250565b60006128cd602c836120fd565b91506128d882612871565b604082019050919050565b600060208201905081810360008301526128fc816128c0565b9050919050565b7f4e487b7100000000000000000000000000000000000000000000000000000000600052603260045260246000fd5b7f4552433732313a20696e76616c696420746f6b656e2049440000000000000000600082015250565b60006129686018836120fd565b915061297382612932565b602082019050919050565b600060208201905081810360008301526129978161295b565b9050919050565b7f4552433732313a2061646472657373207a65726f206973206e6f74206120766160008201527f6c6964206f776e65720000000000000000000000000000000000000000000000602082015250565b60006129fa6029836120fd565b9150612a058261299e565b604082019050919050565b60006020820190508181036000830152612a29816129ed565b9050919050565b7f4e487b7100000000000000000000000000000000000000000000000000000000600052601160045260246000fd5b6000612a6a826121a4565b9150612a75836121a4565b9250828203905081811115612a8d57612a8c612a30565b5b92915050565b7f4e487b7100000000000000000000000000000000000000000000000000000000600052601260045260246000fd5b6000612acd826121a4565b9150612ad8836121a4565b925082612ae857612ae7612a93565b5b828204905092915050565b6000612afe826121a4565b9150612b09836121a4565b9250828201905080821115612b2157612b20612a30565b5b92915050565b600081519050612b36816121ae565b92915050565b600060208284031215612b5257612b5161202d565b5b6000612b6084828501612b27565b91505092915050565b60008190508160005260206000209050919050565b60006020601f8301049050919050565b600082821b905092915050565b600060088302612bcb7fffffffffffffffffffffffffffffffffffffffffffffffffffffffffffffffff82612b8e565b612bd58683612b8e565b95508019841693508086168417925050509392505050565b6000819050919050565b6000612c12612c0d612c08846121a4565b612bed565b6121a4565b9050919050565b6000819050919050565b612c2c83612bf7565b612c40612c3882612c19565b848454612b9b565b825550505050565b600090565b612c55612c48565b612c60818484612c23565b505050565b5b81811015612c8457612c79600082612c4d565b600181019050612c66565b5050565b601f821115612cc957612c9a81612b69565b612ca384612b7e565b81016020851015612cb2578190505b612cc6612cbe85612b7e565b830182612c65565b50505b505050565b600082821c905092915050565b6000612cec60001984600802612cce565b1980831691505092915050565b6000612d058383612cdb565b9150826002028217905092915050565b612d1e826120f2565b67ffffffffffffffff811115612d3757612d366123ef565b5b612d41825461271c565b612d4c828285612c88565b600060209050601f831160018114612d7f5760008415612d6d578287015190505b612d778582612cf9565b865550612ddf565b601f198416612d8d86612b69565b60005b82811015612db557848901518255600182019150602085019450602081019050612d90565b86831015612dd25784890151612dce601f891682612cdb565b8355505b6001600288020188555050505b505050505050565b7f456d706c6f796565436172643a20746f6b656e20646f6573206e6f742065786960008201527f7374000000000000000000000000000000000000000000000000000000000000602082015250565b6000612e436022836120fd565b9150612e4e82612de7565b604082019050919050565b60006020820190508181036000830152612e7281612e36565b9050919050565b7f4f776e61626c653a206e6577206f776e657220697320746865207a65726f206160008201527f6464726573730000000000000000000000000000000000000000000000000000602082015250565b6000612ed56026836120fd565b9150612ee082612e79565b604082019050919050565b60006020820190508181036000830152612f0481612ec8565b9050919050565b7f4f776e61626c653a2063616c6c6572206973206e6f7420746865206f776e6572600082015250565b6000612f416020836120fd565b9150612f4c82612f0b565b602082019050919050565b60006020820190508181036000830152612f7081612f34565b9050919050565b7f4552433732313a20617070726f766520746f2063616c6c657200000000000000600082015250565b6000612fad6019836120fd565b9150612fb882612f77565b602082019050919050565b60006020820190508181036000830152612fdc81612fa0565b9050919050565b7f4552433732313a207472616e7366657220746f206e6f6e20455243373231526560008201527f63656976657220696d706c656d656e7465720000000000000000000000000000602082015250565b600061303f6032836120fd565b915061304a82612fe3565b604082019050919050565b6000602082019050818103600083015261306e81613032565b9050919050565b7f4552433732313a207472616e736665722066726f6d20696e636f72726563742060008201527f6f776e6572000000000000000000000000000000000000000000000000000000602082015250565b60006130d16025836120fd565b91506130dc82613075565b604082019050919050565b60006020820190508181036000830152613100816130c4565b9050919050565b7f4552433732313a207472616e7366657220746f20746865207a65726f2061646460008201527f7265737300000000000000000000000000000000000000000000000000000000602082015250565b60006131636024836120fd565b915061316e82613107565b604082019050919050565b6000602082019050818103600083015261319281613156565b9050919050565b600081519050919050565b600082825260208201905092915050565b60006131c082613199565b6131ca81856131a4565b93506131da81856020860161210e565b6131e381612138565b840191505092915050565b60006080820190506132036000830187612239565b6132106020830186612239565b61321d60408301856122cf565b818103606083015261322f81846131b5565b905095945050505050565b60008151905061324981612063565b92915050565b6000602082840312156132655761326461202d565b5b60006132738482850161323a565b91505092915050565b7f4e487b7100000000000000000000000000000000000000000000000000000000600052603160045260246000fd5b7f4552433732313a206d696e7420746f20746865207a65726f2061646472657373600082015250565b60006132e16020836120fd565b91506132ec826132ab565b602082019050919050565b60006020820190508181036000830152613310816132d4565b9050919050565b7f4552433732313a20746f6b656e20616c7265616479206d696e74656400000000600082015250565b600061334d601c836120fd565b915061335882613317565b602082019050919050565b6000602082019050818103600083015261337c81613340565b905091905056fea26469706673582212204aa2963d325ecc420a651329633f699451f48931fcf08a017f6fd963f62b923c64736f6c63430008110033",
  "immutableReferences": {},
  "source": "// SPDX-License-Identifier: MIT\npragma solidity ^0.8.17;\n\nimport \"./EmployeeCard.sol\";\n\ncontract EmployeeCardFactory is EmployeeCard {\n    constructor() EmployeeCard(\"Younup Employee Card\", \"YNPC\") \n    {}\n}",
  "sourcePath": "/home/younup/Projects/TechMakerNFT_Younup/contracts/EmployeeCardFactory.sol",
  "compiler": {
    "name": "solc",
    "version": "0.8.17+commit.8df45f5f.Emscripten.clang"
  },
  "schemaVersion": "3.4.10",
  "updatedAt": "2022-10-08T17:17:18.857Z",
  "devdoc": {
    "kind": "dev",
    "methods": {
      "balanceOf(address)": {
        "details": "See {IERC721-balanceOf}."
      },
      "getApproved(uint256)": {
        "details": "See {IERC721-getApproved}."
      },
      "isApprovedForAll(address,address)": {
        "details": "See {IERC721-isApprovedForAll}."
      },
      "name()": {
        "details": "See {IERC721Metadata-name}."
      },
      "owner()": {
        "details": "Returns the address of the current owner."
      },
      "ownerOf(uint256)": {
        "details": "See {IERC721-ownerOf}."
      },
      "renounceOwnership()": {
        "details": "Leaves the contract without owner. It will not be possible to call `onlyOwner` functions anymore. Can only be called by the current owner. NOTE: Renouncing ownership will leave the contract without an owner, thereby removing any functionality that is only available to the owner."
      },
      "safeTransferFrom(address,address,uint256)": {
        "details": "See {IERC721-safeTransferFrom}."
      },
      "safeTransferFrom(address,address,uint256,bytes)": {
        "details": "See {IERC721-safeTransferFrom}."
      },
      "setApprovalForAll(address,bool)": {
        "details": "See {IERC721-setApprovalForAll}."
      },
      "supportsInterface(bytes4)": {
        "details": "See {IERC165-supportsInterface}."
      },
      "symbol()": {
        "details": "See {IERC721Metadata-symbol}."
      },
      "tokenByIndex(uint256)": {
        "details": "See {IERC721Enumerable-tokenByIndex}."
      },
      "tokenOfOwnerByIndex(address,uint256)": {
        "details": "See {IERC721Enumerable-tokenOfOwnerByIndex}."
      },
      "totalSupply()": {
        "details": "See {IERC721Enumerable-totalSupply}."
      },
      "transferFrom(address,address,uint256)": {
        "details": "See {IERC721-transferFrom}."
      },
      "transferOwnership(address)": {
        "details": "Transfers ownership of the contract to a new account (`newOwner`). Can only be called by the current owner."
      }
    },
    "version": 1
  },
  "userdoc": {
    "kind": "user",
    "methods": {
      "approve(address,uint256)": {
        "notice": "Ensure that approvals are only allowed for contract owner."
      },
      "burn(uint256)": {
        "notice": "Ensure that burn is only accepted for contract owner. "
      },
      "destruct()": {
        "notice": "Make the contract destructible (to remove on prod)"
      },
      "getEmployeeVacationRights(uint256)": {
        "notice": "Calculate total amount of days the employee can expect according to its time in the company."
      },
      "mint(address,string,uint256)": {
        "notice": "Mint a new employee card SBT token."
      },
      "tokenURI(uint256)": {
        "notice": "Gets the URI of the token metadata. Using IPFS URI is highly recommended."
      }
    },
    "version": 1
  },
  "address": "0xE3043068177dB57e910489EeB69eBC884656c9A2"
}