{
    "contractName": "EmployeeCard",
    "abi": [
        {
            "inputs": [
                {
                    "internalType": "string",
                    "name": "name",
                    "type": "string"
                },
                {
                    "internalType": "string",
                    "name": "symbol",
                    "type": "string"
                }
            ],
            "stateMutability": "nonpayable",
            "type": "constructor"
        },
        {
            "anonymous": false,
            "inputs": [
                {
                    "indexed": true,
                    "internalType": "address",
                    "name": "owner",
                    "type": "address"
                },
                {
                    "indexed": true,
                    "internalType": "address",
                    "name": "approved",
                    "type": "address"
                },
                {
                    "indexed": true,
                    "internalType": "uint256",
                    "name": "tokenId",
                    "type": "uint256"
                }
            ],
            "name": "Approval",
            "type": "event"
        },
        {
            "anonymous": false,
            "inputs": [
                {
                    "indexed": true,
                    "internalType": "address",
                    "name": "owner",
                    "type": "address"
                },
                {
                    "indexed": true,
                    "internalType": "address",
                    "name": "operator",
                    "type": "address"
                },
                {
                    "indexed": false,
                    "internalType": "bool",
                    "name": "approved",
                    "type": "bool"
                }
            ],
            "name": "ApprovalForAll",
            "type": "event"
        },
        {
            "anonymous": false,
            "inputs": [
                {
                    "indexed": true,
                    "internalType": "address",
                    "name": "previousOwner",
                    "type": "address"
                },
                {
                    "indexed": true,
                    "internalType": "address",
                    "name": "newOwner",
                    "type": "address"
                }
            ],
            "name": "OwnershipTransferred",
            "type": "event"
        },
        {
            "anonymous": false,
            "inputs": [
                {
                    "indexed": true,
                    "internalType": "address",
                    "name": "from",
                    "type": "address"
                },
                {
                    "indexed": true,
                    "internalType": "address",
                    "name": "to",
                    "type": "address"
                },
                {
                    "indexed": true,
                    "internalType": "uint256",
                    "name": "tokenId",
                    "type": "uint256"
                }
            ],
            "name": "Transfer",
            "type": "event"
        },
        {
            "anonymous": false,
            "inputs": [
                {
                    "indexed": false,
                    "internalType": "address",
                    "name": "sender",
                    "type": "address"
                },
                {
                    "indexed": false,
                    "internalType": "uint256",
                    "name": "amount",
                    "type": "uint256"
                },
                {
                    "indexed": false,
                    "internalType": "bytes",
                    "name": "data",
                    "type": "bytes"
                }
            ],
            "name": "callReceived",
            "type": "event"
        },
        {
            "anonymous": false,
            "inputs": [
                {
                    "indexed": false,
                    "internalType": "address",
                    "name": "sender",
                    "type": "address"
                },
                {
                    "indexed": false,
                    "internalType": "uint256",
                    "name": "amount",
                    "type": "uint256"
                }
            ],
            "name": "tokenReceived",
            "type": "event"
        },
        {
            "stateMutability": "payable",
            "type": "fallback",
            "payable": true
        },
        {
            "inputs": [
                {
                    "internalType": "address",
                    "name": "to",
                    "type": "address"
                },
                {
                    "internalType": "uint256",
                    "name": "tokenId",
                    "type": "uint256"
                }
            ],
            "name": "approve",
            "outputs": [],
            "stateMutability": "nonpayable",
            "type": "function"
        },
        {
            "inputs": [
                {
                    "internalType": "address",
                    "name": "owner",
                    "type": "address"
                }
            ],
            "name": "balanceOf",
            "outputs": [
                {
                    "internalType": "uint256",
                    "name": "",
                    "type": "uint256"
                }
            ],
            "stateMutability": "view",
            "type": "function",
            "constant": true
        },
        {
            "inputs": [
                {
                    "internalType": "uint256",
                    "name": "tokenId",
                    "type": "uint256"
                }
            ],
            "name": "burn",
            "outputs": [],
            "stateMutability": "nonpayable",
            "type": "function"
        },
        {
            "inputs": [
                {
                    "internalType": "uint256",
                    "name": "tokenId",
                    "type": "uint256"
                }
            ],
            "name": "getApproved",
            "outputs": [
                {
                    "internalType": "address",
                    "name": "",
                    "type": "address"
                }
            ],
            "stateMutability": "view",
            "type": "function",
            "constant": true
        },
        {
            "inputs": [
                {
                    "internalType": "address",
                    "name": "owner",
                    "type": "address"
                },
                {
                    "internalType": "address",
                    "name": "operator",
                    "type": "address"
                }
            ],
            "name": "isApprovedForAll",
            "outputs": [
                {
                    "internalType": "bool",
                    "name": "",
                    "type": "bool"
                }
            ],
            "stateMutability": "view",
            "type": "function",
            "constant": true
        },
        {
            "inputs": [],
            "name": "name",
            "outputs": [
                {
                    "internalType": "string",
                    "name": "",
                    "type": "string"
                }
            ],
            "stateMutability": "view",
            "type": "function",
            "constant": true
        },
        {
            "inputs": [],
            "name": "owner",
            "outputs": [
                {
                    "internalType": "address",
                    "name": "",
                    "type": "address"
                }
            ],
            "stateMutability": "view",
            "type": "function",
            "constant": true
        },
        {
            "inputs": [
                {
                    "internalType": "uint256",
                    "name": "tokenId",
                    "type": "uint256"
                }
            ],
            "name": "ownerOf",
            "outputs": [
                {
                    "internalType": "address",
                    "name": "",
                    "type": "address"
                }
            ],
            "stateMutability": "view",
            "type": "function",
            "constant": true
        },
        {
            "inputs": [],
            "name": "renounceOwnership",
            "outputs": [],
            "stateMutability": "nonpayable",
            "type": "function"
        },
        {
            "inputs": [
                {
                    "internalType": "address",
                    "name": "from",
                    "type": "address"
                },
                {
                    "internalType": "address",
                    "name": "to",
                    "type": "address"
                },
                {
                    "internalType": "uint256",
                    "name": "tokenId",
                    "type": "uint256"
                }
            ],
            "name": "safeTransferFrom",
            "outputs": [],
            "stateMutability": "nonpayable",
            "type": "function"
        },
        {
            "inputs": [
                {
                    "internalType": "address",
                    "name": "from",
                    "type": "address"
                },
                {
                    "internalType": "address",
                    "name": "to",
                    "type": "address"
                },
                {
                    "internalType": "uint256",
                    "name": "tokenId",
                    "type": "uint256"
                },
                {
                    "internalType": "bytes",
                    "name": "data",
                    "type": "bytes"
                }
            ],
            "name": "safeTransferFrom",
            "outputs": [],
            "stateMutability": "nonpayable",
            "type": "function"
        },
        {
            "inputs": [
                {
                    "internalType": "address",
                    "name": "operator",
                    "type": "address"
                },
                {
                    "internalType": "bool",
                    "name": "approved",
                    "type": "bool"
                }
            ],
            "name": "setApprovalForAll",
            "outputs": [],
            "stateMutability": "nonpayable",
            "type": "function"
        },
        {
            "inputs": [
                {
                    "internalType": "bytes4",
                    "name": "interfaceId",
                    "type": "bytes4"
                }
            ],
            "name": "supportsInterface",
            "outputs": [
                {
                    "internalType": "bool",
                    "name": "",
                    "type": "bool"
                }
            ],
            "stateMutability": "view",
            "type": "function",
            "constant": true
        },
        {
            "inputs": [],
            "name": "symbol",
            "outputs": [
                {
                    "internalType": "string",
                    "name": "",
                    "type": "string"
                }
            ],
            "stateMutability": "view",
            "type": "function",
            "constant": true
        },
        {
            "inputs": [
                {
                    "internalType": "uint256",
                    "name": "index",
                    "type": "uint256"
                }
            ],
            "name": "tokenByIndex",
            "outputs": [
                {
                    "internalType": "uint256",
                    "name": "",
                    "type": "uint256"
                }
            ],
            "stateMutability": "view",
            "type": "function",
            "constant": true
        },
        {
            "inputs": [
                {
                    "internalType": "address",
                    "name": "owner",
                    "type": "address"
                },
                {
                    "internalType": "uint256",
                    "name": "index",
                    "type": "uint256"
                }
            ],
            "name": "tokenOfOwnerByIndex",
            "outputs": [
                {
                    "internalType": "uint256",
                    "name": "",
                    "type": "uint256"
                }
            ],
            "stateMutability": "view",
            "type": "function",
            "constant": true
        },
        {
            "inputs": [],
            "name": "totalSupply",
            "outputs": [
                {
                    "internalType": "uint256",
                    "name": "",
                    "type": "uint256"
                }
            ],
            "stateMutability": "view",
            "type": "function",
            "constant": true
        },
        {
            "inputs": [
                {
                    "internalType": "address",
                    "name": "from",
                    "type": "address"
                },
                {
                    "internalType": "address",
                    "name": "to",
                    "type": "address"
                },
                {
                    "internalType": "uint256",
                    "name": "tokenId",
                    "type": "uint256"
                }
            ],
            "name": "transferFrom",
            "outputs": [],
            "stateMutability": "nonpayable",
            "type": "function"
        },
        {
            "inputs": [
                {
                    "internalType": "address",
                    "name": "newOwner",
                    "type": "address"
                }
            ],
            "name": "transferOwnership",
            "outputs": [],
            "stateMutability": "nonpayable",
            "type": "function"
        },
        {
            "stateMutability": "payable",
            "type": "receive",
            "payable": true
        },
        {
            "inputs": [
                {
                    "internalType": "uint256",
                    "name": "tokenId",
                    "type": "uint256"
                }
            ],
            "name": "tokenURI",
            "outputs": [
                {
                    "internalType": "string",
                    "name": "",
                    "type": "string"
                }
            ],
            "stateMutability": "view",
            "type": "function",
            "constant": true
        },
        {
            "inputs": [
                {
                    "internalType": "address",
                    "name": "_recipient",
                    "type": "address"
                },
                {
                    "internalType": "string",
                    "name": "_tokenURI",
                    "type": "string"
                },
                {
                    "internalType": "uint256",
                    "name": "_startDate",
                    "type": "uint256"
                }
            ],
            "name": "mint",
            "outputs": [
                {
                    "internalType": "uint256",
                    "name": "",
                    "type": "uint256"
                }
            ],
            "stateMutability": "nonpayable",
            "type": "function"
        },
        {
            "inputs": [
                {
                    "internalType": "address",
                    "name": "employee",
                    "type": "address"
                }
            ],
            "name": "getEmployeeVacationRights",
            "outputs": [
                {
                    "internalType": "uint256",
                    "name": "",
                    "type": "uint256"
                }
            ],
            "stateMutability": "view",
            "type": "function",
            "constant": true
        },
        {
            "inputs": [
                {
                    "internalType": "address",
                    "name": "_holder",
                    "type": "address"
                }
            ],
            "name": "burnEmployeeCard",
            "outputs": [],
            "stateMutability": "nonpayable",
            "type": "function"
        },
        {
            "inputs": [],
            "name": "destruct",
            "outputs": [],
            "stateMutability": "nonpayable",
            "type": "function"
        }
    ],
    "bytecode": "0x60806040523480156200001157600080fd5b5060405162003efe38038062003efe8339818101604052810190620000379190620002e8565b818181600090816200004a9190620005b8565b5080600190816200005c9190620005b8565b5050506200007f620000736200008760201b60201c565b6200008f60201b60201c565b50506200069f565b600033905090565b6000600a60009054906101000a900473ffffffffffffffffffffffffffffffffffffffff16905081600a60006101000a81548173ffffffffffffffffffffffffffffffffffffffff021916908373ffffffffffffffffffffffffffffffffffffffff1602179055508173ffffffffffffffffffffffffffffffffffffffff168173ffffffffffffffffffffffffffffffffffffffff167f8be0079c531659141344cd1fd0a4f28419497f9722a3daafe3b4186f6b6457e060405160405180910390a35050565b6000604051905090565b600080fd5b600080fd5b600080fd5b600080fd5b6000601f19601f8301169050919050565b7f4e487b7100000000000000000000000000000000000000000000000000000000600052604160045260246000fd5b620001be8262000173565b810181811067ffffffffffffffff82111715620001e057620001df62000184565b5b80604052505050565b6000620001f562000155565b9050620002038282620001b3565b919050565b600067ffffffffffffffff82111562000226576200022562000184565b5b620002318262000173565b9050602081019050919050565b60005b838110156200025e57808201518184015260208101905062000241565b60008484015250505050565b6000620002816200027b8462000208565b620001e9565b905082815260208101848484011115620002a0576200029f6200016e565b5b620002ad8482856200023e565b509392505050565b600082601f830112620002cd57620002cc62000169565b5b8151620002df8482602086016200026a565b91505092915050565b600080604083850312156200030257620003016200015f565b5b600083015167ffffffffffffffff81111562000323576200032262000164565b5b6200033185828601620002b5565b925050602083015167ffffffffffffffff81111562000355576200035462000164565b5b6200036385828601620002b5565b9150509250929050565b600081519050919050565b7f4e487b7100000000000000000000000000000000000000000000000000000000600052602260045260246000fd5b60006002820490506001821680620003c057607f821691505b602082108103620003d657620003d562000378565b5b50919050565b60008190508160005260206000209050919050565b60006020601f8301049050919050565b600082821b905092915050565b600060088302620004407fffffffffffffffffffffffffffffffffffffffffffffffffffffffffffffffff8262000401565b6200044c868362000401565b95508019841693508086168417925050509392505050565b6000819050919050565b6000819050919050565b600062000499620004936200048d8462000464565b6200046e565b62000464565b9050919050565b6000819050919050565b620004b58362000478565b620004cd620004c482620004a0565b8484546200040e565b825550505050565b600090565b620004e4620004d5565b620004f1818484620004aa565b505050565b5b8181101562000519576200050d600082620004da565b600181019050620004f7565b5050565b601f82111562000568576200053281620003dc565b6200053d84620003f1565b810160208510156200054d578190505b620005656200055c85620003f1565b830182620004f6565b50505b505050565b600082821c905092915050565b60006200058d600019846008026200056d565b1980831691505092915050565b6000620005a883836200057a565b9150826002028217905092915050565b620005c3826200036d565b67ffffffffffffffff811115620005df57620005de62000184565b5b620005eb8254620003a7565b620005f88282856200051d565b600060209050601f8311600181146200063057600084156200061b578287015190505b6200062785826200059a565b86555062000697565b601f1984166200064086620003dc565b60005b828110156200066a5784890151825560018201915060208501945060208101905062000643565b868310156200068a578489015162000686601f8916826200057a565b8355505b6001600288020188555050505b505050505050565b61384f80620006af6000396000f3fe60806040526004361061014f5760003560e01c80636352211e116100b6578063b88d4fde1161006f578063b88d4fde1461051d578063ba7aef4314610546578063c87b56dd14610583578063e985e9c5146105c0578063f2fde38b146105fd578063f5ca0f1e1461062657610197565b80636352211e1461040d57806370a082311461044a578063715018a6146104875780638da5cb5b1461049e57806395d89b41146104c9578063a22cb465146104f457610197565b806323b872dd1161010857806323b872dd146103015780632b68b9c61461032a5780632f745c591461034157806342842e0e1461037e57806342966c68146103a75780634f6ccce7146103d057610197565b806301ffc9a7146101df57806306fdde031461021c5780630781f11114610247578063081812fc14610270578063095ea7b3146102ad57806318160ddd146102d657610197565b366101975761015c610663565b7fcae15051bbb38f81d4d2fb0eeba04c25ec7fc5e1ac9d89d6d68af8d3aab337dc333460405161018d9291906123eb565b60405180910390a1005b61019f610663565b7f78d4cde33f41357c4c319866718e27bd5646f1c22a31eaa3ee63a04a217bbfde33346000366040516101d59493929190612472565b60405180910390a1005b3480156101eb57600080fd5b506102066004803603810190610201919061251e565b6106e1565b6040516102139190612566565b60405180910390f35b34801561022857600080fd5b5061023161075b565b60405161023e9190612600565b60405180910390f35b34801561025357600080fd5b5061026e6004803603810190610269919061264e565b6107ed565b005b34801561027c57600080fd5b50610297600480360381019061029291906126a7565b61084f565b6040516102a491906126d4565b60405180910390f35b3480156102b957600080fd5b506102d460048036038101906102cf91906126ef565b610895565b005b3480156102e257600080fd5b506102eb6108ab565b6040516102f8919061272f565b60405180910390f35b34801561030d57600080fd5b506103286004803603810190610323919061274a565b6108b8565b005b34801561033657600080fd5b5061033f610918565b005b34801561034d57600080fd5b50610368600480360381019061036391906126ef565b610940565b604051610375919061272f565b60405180910390f35b34801561038a57600080fd5b506103a560048036038101906103a0919061274a565b6109e5565b005b3480156103b357600080fd5b506103ce60048036038101906103c991906126a7565b610a05565b005b3480156103dc57600080fd5b506103f760048036038101906103f291906126a7565b610a19565b604051610404919061272f565b60405180910390f35b34801561041957600080fd5b50610434600480360381019061042f91906126a7565b610a8a565b60405161044191906126d4565b60405180910390f35b34801561045657600080fd5b50610471600480360381019061046c919061264e565b610b3b565b60405161047e919061272f565b60405180910390f35b34801561049357600080fd5b5061049c610bf2565b005b3480156104aa57600080fd5b506104b3610c06565b6040516104c091906126d4565b60405180910390f35b3480156104d557600080fd5b506104de610c30565b6040516104eb9190612600565b60405180910390f35b34801561050057600080fd5b5061051b600480360381019061051691906127c9565b610cc2565b005b34801561052957600080fd5b50610544600480360381019061053f919061292f565b610cd8565b005b34801561055257600080fd5b5061056d60048036038101906105689190612a53565b610d3a565b60405161057a919061272f565b60405180910390f35b34801561058f57600080fd5b506105aa60048036038101906105a591906126a7565b610eff565b6040516105b79190612600565b60405180910390f35b3480156105cc57600080fd5b506105e760048036038101906105e29190612ac2565b610fef565b6040516105f49190612566565b60405180910390f35b34801561060957600080fd5b50610624600480360381019061061f919061264e565b611083565b005b34801561063257600080fd5b5061064d6004803603810190610648919061264e565b611106565b60405161065a919061272f565b60405180910390f35b61066b6111f1565b73ffffffffffffffffffffffffffffffffffffffff16610689610c06565b73ffffffffffffffffffffffffffffffffffffffff16146106df576040517f08c379a00000000000000000000000000000000000000000000000000000000081526004016106d690612b4e565b60405180910390fd5b565b60007f780e9d63000000000000000000000000000000000000000000000000000000007bffffffffffffffffffffffffffffffffffffffffffffffffffffffff1916827bffffffffffffffffffffffffffffffffffffffffffffffffffffffff191614806107545750610753826111f9565b5b9050919050565b60606000805461076a90612b9d565b80601f016020809104026020016040519081016040528092919081815260200182805461079690612b9d565b80156107e35780601f106107b8576101008083540402835291602001916107e3565b820191906000526020600020905b8154815290600101906020018083116107c657829003601f168201915b5050505050905090565b6107f5610663565b6000600b60008373ffffffffffffffffffffffffffffffffffffffff1673ffffffffffffffffffffffffffffffffffffffff168152602001908152602001600020549050610842816112db565b61084b81610a05565b5050565b600061085a826112db565b6004600083815260200190815260200160002060009054906101000a900473ffffffffffffffffffffffffffffffffffffffff169050919050565b61089d610663565b6108a78282611326565b5050565b6000600880549050905090565b6108c96108c36111f1565b826113df565b610908576040517f08c379a00000000000000000000000000000000000000000000000000000000081526004016108ff90612c40565b60405180910390fd5b610913838383611474565b505050565b610920610663565b610928610c06565b73ffffffffffffffffffffffffffffffffffffffff16ff5b600061094b83610b3b565b821061098c576040517f08c379a000000000000000000000000000000000000000000000000000000000815260040161098390612cd2565b60405180910390fd5b600660008473ffffffffffffffffffffffffffffffffffffffff1673ffffffffffffffffffffffffffffffffffffffff168152602001908152602001600020600083815260200190815260200160002054905092915050565b610a0083838360405180602001604052806000815250610cd8565b505050565b610a0d610663565b610a168161148c565b50565b6000610a236108ab565b8210610a64576040517f08c379a0000000000000000000000000000000000000000000000000000000008152600401610a5b90612d64565b60405180910390fd5b60088281548110610a7857610a77612d84565b5b90600052602060002001549050919050565b6000806002600084815260200190815260200160002060009054906101000a900473ffffffffffffffffffffffffffffffffffffffff169050600073ffffffffffffffffffffffffffffffffffffffff168173ffffffffffffffffffffffffffffffffffffffff1603610b32576040517f08c379a0000000000000000000000000000000000000000000000000000000008152600401610b2990612dff565b60405180910390fd5b80915050919050565b60008073ffffffffffffffffffffffffffffffffffffffff168273ffffffffffffffffffffffffffffffffffffffff1603610bab576040517f08c379a0000000000000000000000000000000000000000000000000000000008152600401610ba290612e91565b60405180910390fd5b600360008373ffffffffffffffffffffffffffffffffffffffff1673ffffffffffffffffffffffffffffffffffffffff168152602001908152602001600020549050919050565b610bfa610663565b610c0460006115a9565b565b6000600a60009054906101000a900473ffffffffffffffffffffffffffffffffffffffff16905090565b606060018054610c3f90612b9d565b80601f0160208091040260200160405190810160405280929190818152602001828054610c6b90612b9d565b8015610cb85780601f10610c8d57610100808354040283529160200191610cb8565b820191906000526020600020905b815481529060010190602001808311610c9b57829003601f168201915b5050505050905090565b610cd4610ccd6111f1565b838361166f565b5050565b610ce9610ce36111f1565b836113df565b610d28576040517f08c379a0000000000000000000000000000000000000000000000000000000008152600401610d1f90612c40565b60405180910390fd5b610d34848484846117db565b50505050565b6000610d44610663565b6000610d4f85610b3b565b14610d8f576040517f08c379a0000000000000000000000000000000000000000000000000000000008152600401610d8690612f23565b60405180910390fd5b60003073ffffffffffffffffffffffffffffffffffffffff166318160ddd6040518163ffffffff1660e01b8152600401602060405180830381865afa158015610ddc573d6000803e3d6000fd5b505050506040513d601f19601f82011682018060405250810190610e009190612f58565b9050610e0c8582611837565b610e1581611855565b610e54576040517f08c379a0000000000000000000000000000000000000000000000000000000008152600401610e4b90612dff565b60405180910390fd5b80600b60008773ffffffffffffffffffffffffffffffffffffffff1673ffffffffffffffffffffffffffffffffffffffff16815260200190815260200160002081905550604051806040016040528085815260200184815250600c60008381526020019081526020016000206000820151816000019081610ed59190613131565b5060208201518160010155905050610ef4610eee610c06565b82611326565b809150509392505050565b6060610f0a82611855565b610f49576040517f08c379a0000000000000000000000000000000000000000000000000000000008152600401610f4090613275565b60405180910390fd5b600c60008381526020019081526020016000206000018054610f6a90612b9d565b80601f0160208091040260200160405190810160405280929190818152602001828054610f9690612b9d565b8015610fe35780601f10610fb857610100808354040283529160200191610fe3565b820191906000526020600020905b815481529060010190602001808311610fc657829003601f168201915b50505050509050919050565b6000600560008473ffffffffffffffffffffffffffffffffffffffff1673ffffffffffffffffffffffffffffffffffffffff16815260200190815260200160002060008373ffffffffffffffffffffffffffffffffffffffff1673ffffffffffffffffffffffffffffffffffffffff16815260200190815260200160002060009054906101000a900460ff16905092915050565b61108b610663565b600073ffffffffffffffffffffffffffffffffffffffff168173ffffffffffffffffffffffffffffffffffffffff16036110fa576040517f08c379a00000000000000000000000000000000000000000000000000000000081526004016110f190613307565b60405180910390fd5b611103816115a9565b50565b6000611150600b60008473ffffffffffffffffffffffffffffffffffffffff1673ffffffffffffffffffffffffffffffffffffffff168152602001908152602001600020546112db565b6000600b60008473ffffffffffffffffffffffffffffffffffffffff1673ffffffffffffffffffffffffffffffffffffffff16815260200190815260200160002054905060006301e13380600c600084815260200190815260200160002060010154426111bd9190613356565b6111c791906133b9565b905060006005826111d891906133b9565b90508060196111e791906133ea565b9350505050919050565b600033905090565b60007f80ac58cd000000000000000000000000000000000000000000000000000000007bffffffffffffffffffffffffffffffffffffffffffffffffffffffff1916827bffffffffffffffffffffffffffffffffffffffffffffffffffffffff191614806112c457507f5b5e139f000000000000000000000000000000000000000000000000000000007bffffffffffffffffffffffffffffffffffffffffffffffffffffffff1916827bffffffffffffffffffffffffffffffffffffffffffffffffffffffff1916145b806112d457506112d3826118c1565b5b9050919050565b6112e481611855565b611323576040517f08c379a000000000000000000000000000000000000000000000000000000000815260040161131a90612dff565b60405180910390fd5b50565b816004600083815260200190815260200160002060006101000a81548173ffffffffffffffffffffffffffffffffffffffff021916908373ffffffffffffffffffffffffffffffffffffffff160217905550808273ffffffffffffffffffffffffffffffffffffffff1661139983610a8a565b73ffffffffffffffffffffffffffffffffffffffff167f8c5be1e5ebec7d5bd14f71427d1e84f3dd0314c0f7b2291e5b200ac8c7c3b92560405160405180910390a45050565b6000806113eb83610a8a565b90508073ffffffffffffffffffffffffffffffffffffffff168473ffffffffffffffffffffffffffffffffffffffff16148061142d575061142c8185610fef565b5b8061146b57508373ffffffffffffffffffffffffffffffffffffffff166114538461084f565b73ffffffffffffffffffffffffffffffffffffffff16145b91505092915050565b61147c610663565b61148783838361192b565b505050565b600061149782610a8a565b90506114a581600084611b91565b6114b0600083611326565b6001600360008373ffffffffffffffffffffffffffffffffffffffff1673ffffffffffffffffffffffffffffffffffffffff16815260200190815260200160002060008282546115009190613356565b925050819055506002600083815260200190815260200160002060006101000a81549073ffffffffffffffffffffffffffffffffffffffff021916905581600073ffffffffffffffffffffffffffffffffffffffff168273ffffffffffffffffffffffffffffffffffffffff167fddf252ad1be2c89b69c2b068fc378daa952ba7f163c4a11628f55a4df523b3ef60405160405180910390a46115a581600084611ca3565b5050565b6000600a60009054906101000a900473ffffffffffffffffffffffffffffffffffffffff16905081600a60006101000a81548173ffffffffffffffffffffffffffffffffffffffff021916908373ffffffffffffffffffffffffffffffffffffffff1602179055508173ffffffffffffffffffffffffffffffffffffffff168173ffffffffffffffffffffffffffffffffffffffff167f8be0079c531659141344cd1fd0a4f28419497f9722a3daafe3b4186f6b6457e060405160405180910390a35050565b8173ffffffffffffffffffffffffffffffffffffffff168373ffffffffffffffffffffffffffffffffffffffff16036116dd576040517f08c379a00000000000000000000000000000000000000000000000000000000081526004016116d49061346a565b60405180910390fd5b80600560008573ffffffffffffffffffffffffffffffffffffffff1673ffffffffffffffffffffffffffffffffffffffff16815260200190815260200160002060008473ffffffffffffffffffffffffffffffffffffffff1673ffffffffffffffffffffffffffffffffffffffff16815260200190815260200160002060006101000a81548160ff0219169083151502179055508173ffffffffffffffffffffffffffffffffffffffff168373ffffffffffffffffffffffffffffffffffffffff167f17307eab39ab6107e8899845ad3d59bd9653f200f220920489ca2b5937696c31836040516117ce9190612566565b60405180910390a3505050565b6117e6848484611474565b6117f284848484611ca8565b611831576040517f08c379a0000000000000000000000000000000000000000000000000000000008152600401611828906134fc565b60405180910390fd5b50505050565b611851828260405180602001604052806000815250611e2f565b5050565b60008073ffffffffffffffffffffffffffffffffffffffff166002600084815260200190815260200160002060009054906101000a900473ffffffffffffffffffffffffffffffffffffffff1673ffffffffffffffffffffffffffffffffffffffff1614159050919050565b60007f01ffc9a7000000000000000000000000000000000000000000000000000000007bffffffffffffffffffffffffffffffffffffffffffffffffffffffff1916827bffffffffffffffffffffffffffffffffffffffffffffffffffffffff1916149050919050565b8273ffffffffffffffffffffffffffffffffffffffff1661194b82610a8a565b73ffffffffffffffffffffffffffffffffffffffff16146119a1576040517f08c379a00000000000000000000000000000000000000000000000000000000081526004016119989061358e565b60405180910390fd5b600073ffffffffffffffffffffffffffffffffffffffff168273ffffffffffffffffffffffffffffffffffffffff1603611a10576040517f08c379a0000000000000000000000000000000000000000000000000000000008152600401611a0790613620565b60405180910390fd5b611a1b838383611b91565b611a26600082611326565b6001600360008573ffffffffffffffffffffffffffffffffffffffff1673ffffffffffffffffffffffffffffffffffffffff1681526020019081526020016000206000828254611a769190613356565b925050819055506001600360008473ffffffffffffffffffffffffffffffffffffffff1673ffffffffffffffffffffffffffffffffffffffff1681526020019081526020016000206000828254611acd91906133ea565b92505081905550816002600083815260200190815260200160002060006101000a81548173ffffffffffffffffffffffffffffffffffffffff021916908373ffffffffffffffffffffffffffffffffffffffff160217905550808273ffffffffffffffffffffffffffffffffffffffff168473ffffffffffffffffffffffffffffffffffffffff167fddf252ad1be2c89b69c2b068fc378daa952ba7f163c4a11628f55a4df523b3ef60405160405180910390a4611b8c838383611ca3565b505050565b611b9c838383611e8a565b600073ffffffffffffffffffffffffffffffffffffffff168373ffffffffffffffffffffffffffffffffffffffff1603611bde57611bd981611e8f565b611c1d565b8173ffffffffffffffffffffffffffffffffffffffff168373ffffffffffffffffffffffffffffffffffffffff1614611c1c57611c1b8382611ed8565b5b5b600073ffffffffffffffffffffffffffffffffffffffff168273ffffffffffffffffffffffffffffffffffffffff1603611c5f57611c5a81612045565b611c9e565b8273ffffffffffffffffffffffffffffffffffffffff168273ffffffffffffffffffffffffffffffffffffffff1614611c9d57611c9c8282612116565b5b5b505050565b505050565b6000611cc98473ffffffffffffffffffffffffffffffffffffffff16612195565b15611e22578373ffffffffffffffffffffffffffffffffffffffff1663150b7a02611cf26111f1565b8786866040518563ffffffff1660e01b8152600401611d149493929190613684565b6020604051808303816000875af1925050508015611d5057506040513d601f19601f82011682018060405250810190611d4d91906136e5565b60015b611dd2573d8060008114611d80576040519150601f19603f3d011682016040523d82523d6000602084013e611d85565b606091505b506000815103611dca576040517f08c379a0000000000000000000000000000000000000000000000000000000008152600401611dc1906134fc565b60405180910390fd5b805181602001fd5b63150b7a0260e01b7bffffffffffffffffffffffffffffffffffffffffffffffffffffffff1916817bffffffffffffffffffffffffffffffffffffffffffffffffffffffff191614915050611e27565b600190505b949350505050565b611e3983836121b8565b611e466000848484611ca8565b611e85576040517f08c379a0000000000000000000000000000000000000000000000000000000008152600401611e7c906134fc565b60405180910390fd5b505050565b505050565b6008805490506009600083815260200190815260200160002081905550600881908060018154018082558091505060019003906000526020600020016000909190919091505550565b60006001611ee584610b3b565b611eef9190613356565b9050600060076000848152602001908152602001600020549050818114611fd4576000600660008673ffffffffffffffffffffffffffffffffffffffff1673ffffffffffffffffffffffffffffffffffffffff168152602001908152602001600020600084815260200190815260200160002054905080600660008773ffffffffffffffffffffffffffffffffffffffff1673ffffffffffffffffffffffffffffffffffffffff168152602001908152602001600020600084815260200190815260200160002081905550816007600083815260200190815260200160002081905550505b6007600084815260200190815260200160002060009055600660008573ffffffffffffffffffffffffffffffffffffffff1673ffffffffffffffffffffffffffffffffffffffff16815260200190815260200160002060008381526020019081526020016000206000905550505050565b600060016008805490506120599190613356565b905060006009600084815260200190815260200160002054905060006008838154811061208957612088612d84565b5b9060005260206000200154905080600883815481106120ab576120aa612d84565b5b9060005260206000200181905550816009600083815260200190815260200160002081905550600960008581526020019081526020016000206000905560088054806120fa576120f9613712565b5b6001900381819060005260206000200160009055905550505050565b600061212183610b3b565b905081600660008573ffffffffffffffffffffffffffffffffffffffff1673ffffffffffffffffffffffffffffffffffffffff168152602001908152602001600020600083815260200190815260200160002081905550806007600084815260200190815260200160002081905550505050565b6000808273ffffffffffffffffffffffffffffffffffffffff163b119050919050565b600073ffffffffffffffffffffffffffffffffffffffff168273ffffffffffffffffffffffffffffffffffffffff1603612227576040517f08c379a000000000000000000000000000000000000000000000000000000000815260040161221e9061378d565b60405180910390fd5b61223081611855565b15612270576040517f08c379a0000000000000000000000000000000000000000000000000000000008152600401612267906137f9565b60405180910390fd5b61227c60008383611b91565b6001600360008473ffffffffffffffffffffffffffffffffffffffff1673ffffffffffffffffffffffffffffffffffffffff16815260200190815260200160002060008282546122cc91906133ea565b92505081905550816002600083815260200190815260200160002060006101000a81548173ffffffffffffffffffffffffffffffffffffffff021916908373ffffffffffffffffffffffffffffffffffffffff160217905550808273ffffffffffffffffffffffffffffffffffffffff16600073ffffffffffffffffffffffffffffffffffffffff167fddf252ad1be2c89b69c2b068fc378daa952ba7f163c4a11628f55a4df523b3ef60405160405180910390a461238d60008383611ca3565b5050565b600073ffffffffffffffffffffffffffffffffffffffff82169050919050565b60006123bc82612391565b9050919050565b6123cc816123b1565b82525050565b6000819050919050565b6123e5816123d2565b82525050565b600060408201905061240060008301856123c3565b61240d60208301846123dc565b9392505050565b600082825260208201905092915050565b82818337600083830152505050565b6000601f19601f8301169050919050565b60006124518385612414565b935061245e838584612425565b61246783612434565b840190509392505050565b600060608201905061248760008301876123c3565b61249460208301866123dc565b81810360408301526124a7818486612445565b905095945050505050565b6000604051905090565b600080fd5b600080fd5b60007fffffffff0000000000000000000000000000000000000000000000000000000082169050919050565b6124fb816124c6565b811461250657600080fd5b50565b600081359050612518816124f2565b92915050565b600060208284031215612534576125336124bc565b5b600061254284828501612509565b91505092915050565b60008115159050919050565b6125608161254b565b82525050565b600060208201905061257b6000830184612557565b92915050565b600081519050919050565b600082825260208201905092915050565b60005b838110156125bb5780820151818401526020810190506125a0565b60008484015250505050565b60006125d282612581565b6125dc818561258c565b93506125ec81856020860161259d565b6125f581612434565b840191505092915050565b6000602082019050818103600083015261261a81846125c7565b905092915050565b61262b816123b1565b811461263657600080fd5b50565b60008135905061264881612622565b92915050565b600060208284031215612664576126636124bc565b5b600061267284828501612639565b91505092915050565b612684816123d2565b811461268f57600080fd5b50565b6000813590506126a18161267b565b92915050565b6000602082840312156126bd576126bc6124bc565b5b60006126cb84828501612692565b91505092915050565b60006020820190506126e960008301846123c3565b92915050565b60008060408385031215612706576127056124bc565b5b600061271485828601612639565b925050602061272585828601612692565b9150509250929050565b600060208201905061274460008301846123dc565b92915050565b600080600060608486031215612763576127626124bc565b5b600061277186828701612639565b935050602061278286828701612639565b925050604061279386828701612692565b9150509250925092565b6127a68161254b565b81146127b157600080fd5b50565b6000813590506127c38161279d565b92915050565b600080604083850312156127e0576127df6124bc565b5b60006127ee85828601612639565b92505060206127ff858286016127b4565b9150509250929050565b600080fd5b600080fd5b7f4e487b7100000000000000000000000000000000000000000000000000000000600052604160045260246000fd5b61284b82612434565b810181811067ffffffffffffffff8211171561286a57612869612813565b5b80604052505050565b600061287d6124b2565b90506128898282612842565b919050565b600067ffffffffffffffff8211156128a9576128a8612813565b5b6128b282612434565b9050602081019050919050565b60006128d26128cd8461288e565b612873565b9050828152602081018484840111156128ee576128ed61280e565b5b6128f9848285612425565b509392505050565b600082601f83011261291657612915612809565b5b81356129268482602086016128bf565b91505092915050565b60008060008060808587031215612949576129486124bc565b5b600061295787828801612639565b945050602061296887828801612639565b935050604061297987828801612692565b925050606085013567ffffffffffffffff81111561299a576129996124c1565b5b6129a687828801612901565b91505092959194509250565b600067ffffffffffffffff8211156129cd576129cc612813565b5b6129d682612434565b9050602081019050919050565b60006129f66129f1846129b2565b612873565b905082815260208101848484011115612a1257612a1161280e565b5b612a1d848285612425565b509392505050565b600082601f830112612a3a57612a39612809565b5b8135612a4a8482602086016129e3565b91505092915050565b600080600060608486031215612a6c57612a6b6124bc565b5b6000612a7a86828701612639565b935050602084013567ffffffffffffffff811115612a9b57612a9a6124c1565b5b612aa786828701612a25565b9250506040612ab886828701612692565b9150509250925092565b60008060408385031215612ad957612ad86124bc565b5b6000612ae785828601612639565b9250506020612af885828601612639565b9150509250929050565b7f4f776e61626c653a2063616c6c6572206973206e6f7420746865206f776e6572600082015250565b6000612b3860208361258c565b9150612b4382612b02565b602082019050919050565b60006020820190508181036000830152612b6781612b2b565b9050919050565b7f4e487b7100000000000000000000000000000000000000000000000000000000600052602260045260246000fd5b60006002820490506001821680612bb557607f821691505b602082108103612bc857612bc7612b6e565b5b50919050565b7f4552433732313a2063616c6c6572206973206e6f7420746f6b656e206f776e6560008201527f72206e6f7220617070726f766564000000000000000000000000000000000000602082015250565b6000612c2a602e8361258c565b9150612c3582612bce565b604082019050919050565b60006020820190508181036000830152612c5981612c1d565b9050919050565b7f455243373231456e756d657261626c653a206f776e657220696e646578206f7560008201527f74206f6620626f756e6473000000000000000000000000000000000000000000602082015250565b6000612cbc602b8361258c565b9150612cc782612c60565b604082019050919050565b60006020820190508181036000830152612ceb81612caf565b9050919050565b7f455243373231456e756d657261626c653a20676c6f62616c20696e646578206f60008201527f7574206f6620626f756e64730000000000000000000000000000000000000000602082015250565b6000612d4e602c8361258c565b9150612d5982612cf2565b604082019050919050565b60006020820190508181036000830152612d7d81612d41565b9050919050565b7f4e487b7100000000000000000000000000000000000000000000000000000000600052603260045260246000fd5b7f4552433732313a20696e76616c696420746f6b656e2049440000000000000000600082015250565b6000612de960188361258c565b9150612df482612db3565b602082019050919050565b60006020820190508181036000830152612e1881612ddc565b9050919050565b7f4552433732313a2061646472657373207a65726f206973206e6f74206120766160008201527f6c6964206f776e65720000000000000000000000000000000000000000000000602082015250565b6000612e7b60298361258c565b9150612e8682612e1f565b604082019050919050565b60006020820190508181036000830152612eaa81612e6e565b9050919050565b7f416e20656d706c6f7965652063616e206f6e6c792068617665203120746f6b6560008201527f6e00000000000000000000000000000000000000000000000000000000000000602082015250565b6000612f0d60218361258c565b9150612f1882612eb1565b604082019050919050565b60006020820190508181036000830152612f3c81612f00565b9050919050565b600081519050612f528161267b565b92915050565b600060208284031215612f6e57612f6d6124bc565b5b6000612f7c84828501612f43565b91505092915050565b60008190508160005260206000209050919050565b60006020601f8301049050919050565b600082821b905092915050565b600060088302612fe77fffffffffffffffffffffffffffffffffffffffffffffffffffffffffffffffff82612faa565b612ff18683612faa565b95508019841693508086168417925050509392505050565b6000819050919050565b600061302e613029613024846123d2565b613009565b6123d2565b9050919050565b6000819050919050565b61304883613013565b61305c61305482613035565b848454612fb7565b825550505050565b600090565b613071613064565b61307c81848461303f565b505050565b5b818110156130a057613095600082613069565b600181019050613082565b5050565b601f8211156130e5576130b681612f85565b6130bf84612f9a565b810160208510156130ce578190505b6130e26130da85612f9a565b830182613081565b50505b505050565b600082821c905092915050565b6000613108600019846008026130ea565b1980831691505092915050565b600061312183836130f7565b9150826002028217905092915050565b61313a82612581565b67ffffffffffffffff81111561315357613152612813565b5b61315d8254612b9d565b6131688282856130a4565b600060209050601f83116001811461319b5760008415613189578287015190505b6131938582613115565b8655506131fb565b601f1984166131a986612f85565b60005b828110156131d1578489015182556001820191506020850194506020810190506131ac565b868310156131ee57848901516131ea601f8916826130f7565b8355505b6001600288020188555050505b505050505050565b7f456d706c6f796565436172643a20746f6b656e20646f6573206e6f742065786960008201527f7374000000000000000000000000000000000000000000000000000000000000602082015250565b600061325f60228361258c565b915061326a82613203565b604082019050919050565b6000602082019050818103600083015261328e81613252565b9050919050565b7f4f776e61626c653a206e6577206f776e657220697320746865207a65726f206160008201527f6464726573730000000000000000000000000000000000000000000000000000602082015250565b60006132f160268361258c565b91506132fc82613295565b604082019050919050565b60006020820190508181036000830152613320816132e4565b9050919050565b7f4e487b7100000000000000000000000000000000000000000000000000000000600052601160045260246000fd5b6000613361826123d2565b915061336c836123d2565b925082820390508181111561338457613383613327565b5b92915050565b7f4e487b7100000000000000000000000000000000000000000000000000000000600052601260045260246000fd5b60006133c4826123d2565b91506133cf836123d2565b9250826133df576133de61338a565b5b828204905092915050565b60006133f5826123d2565b9150613400836123d2565b925082820190508082111561341857613417613327565b5b92915050565b7f4552433732313a20617070726f766520746f2063616c6c657200000000000000600082015250565b600061345460198361258c565b915061345f8261341e565b602082019050919050565b6000602082019050818103600083015261348381613447565b9050919050565b7f4552433732313a207472616e7366657220746f206e6f6e20455243373231526560008201527f63656976657220696d706c656d656e7465720000000000000000000000000000602082015250565b60006134e660328361258c565b91506134f18261348a565b604082019050919050565b60006020820190508181036000830152613515816134d9565b9050919050565b7f4552433732313a207472616e736665722066726f6d20696e636f72726563742060008201527f6f776e6572000000000000000000000000000000000000000000000000000000602082015250565b600061357860258361258c565b91506135838261351c565b604082019050919050565b600060208201905081810360008301526135a78161356b565b9050919050565b7f4552433732313a207472616e7366657220746f20746865207a65726f2061646460008201527f7265737300000000000000000000000000000000000000000000000000000000602082015250565b600061360a60248361258c565b9150613615826135ae565b604082019050919050565b60006020820190508181036000830152613639816135fd565b9050919050565b600081519050919050565b600061365682613640565b6136608185612414565b935061367081856020860161259d565b61367981612434565b840191505092915050565b600060808201905061369960008301876123c3565b6136a660208301866123c3565b6136b360408301856123dc565b81810360608301526136c5818461364b565b905095945050505050565b6000815190506136df816124f2565b92915050565b6000602082840312156136fb576136fa6124bc565b5b6000613709848285016136d0565b91505092915050565b7f4e487b7100000000000000000000000000000000000000000000000000000000600052603160045260246000fd5b7f4552433732313a206d696e7420746f20746865207a65726f2061646472657373600082015250565b600061377760208361258c565b915061378282613741565b602082019050919050565b600060208201905081810360008301526137a68161376a565b9050919050565b7f4552433732313a20746f6b656e20616c7265616479206d696e74656400000000600082015250565b60006137e3601c8361258c565b91506137ee826137ad565b602082019050919050565b60006020820190508181036000830152613812816137d6565b905091905056fea264697066735822122048171979f12ff6d63bd6c607701ab798149c90990f603a794e348f4217766ea264736f6c63430008110033",
    "immutableReferences": {},
    "source": "// SPDX-License-Identifier: MIT\npragma solidity ^0.8.17;\n\n// Import of extension for SBT token.\nimport \"./extensions/ERC721EnumerableNonTransferable.sol\";\n// Import of Strings standard\nimport \"@openzeppelin/contracts/utils/Strings.sol\";\n\ncontract EmployeeCard is ERC721EnumerableNonTransferable {\n\n  /**\n   * On chain card data structure.\n   */\n  struct CardData {\n    string tokenURI;\n    uint256 startDate;\n  }\n\n  // Map of cards tokenIds by address of employees.\n  mapping(address => uint256)  private _cards;\n\n  // Map of card data by tokenId.\n  mapping(uint256 => CardData) private _cardsData;\n\n  // Event when tokens are sent.\n  event tokenReceived(address sender, uint256 amount);\n  event callReceived(address sender, uint256 amount, bytes data);\n\n  constructor(string memory name, string memory symbol) ERC721(name, symbol) ERC721EnumerableNonTransferable() {}\n    \n  /**\n   * Gets the URI of the token metadata. Using IPFS URI is highly recommended.\n   */\n  function tokenURI(uint256 tokenId) public view virtual override returns (string memory) {\n    require(_exists(tokenId), \"EmployeeCard: token does not exist\");\n    return string(_cardsData[tokenId].tokenURI);\n  }\n\n  /**\n   * Mint a new employee card SBT token.\n   */\n  function mint(address _recipient, string memory _tokenURI, uint256 _startDate) public onlyOwner returns(uint256) {\n    require(balanceOf(_recipient) == 0, \"An employee can only have 1 token\");\n\n    uint256 tokenId = this.totalSupply();\n    _safeMint(_recipient, tokenId);\n\n    require(_exists(tokenId), \"ERC721: invalid token ID\");\n    _cards[_recipient] = tokenId; \n    _cardsData[tokenId] = CardData(_tokenURI, _startDate);\n    _approve(owner(), tokenId);\n\n    return tokenId;\n  }\n\n  /**\n   * Calculate total amount of days the employee can expect according to its time in the company.\n   */\n   function getEmployeeVacationRights(address employee) public view returns(uint256) {\n    _requireMinted(_cards[employee]);\n\n    uint256 _tokenId = _cards[employee];\n\n    uint256 nbOfFullYears = (block.timestamp - _cardsData[_tokenId].startDate) / 31536000;\n    uint256 nbAdditionalDays = nbOfFullYears/5;\n\n    return 25 + nbAdditionalDays;\n  }\n\n  function burnEmployeeCard(address _holder) public onlyOwner {\n    uint256 tokenId = _cards[_holder];\n    _requireMinted(tokenId);\n\n    burn(tokenId);\n  }\n\n  /**\n   * Make the contract destructible (to remove on prod)\n   */\n  function destruct() public onlyOwner {\n    selfdestruct(payable(owner()));\n  }\n\n  /**\n   * Only the owner should be able to add tokens to this contract.\n   */\n  receive() external payable onlyOwner {\n    emit tokenReceived(msg.sender, msg.value);\n  }\n\n  fallback() external payable onlyOwner {\n    emit callReceived(msg.sender, msg.value, msg.data);\n  }\n\n}",
    "sourcePath": "/Users/bpresles/Projects/TechMaker_NFT_EmployeeCard/contracts/EmployeeCard.sol",
    "compiler": {
        "name": "solc",
        "version": "0.8.17+commit.8df45f5f.Emscripten.clang"
    },
    "schemaVersion": "3.4.10",
    "updatedAt": "2022-10-23T18:33:11.431Z",
    "networkType": "ethereum",
    "devdoc": {
        "kind": "dev",
        "methods": {
            "balanceOf(address)": {
                "details": "See {IERC721-balanceOf}."
            },
            "getApproved(uint256)": {
                "details": "See {IERC721-getApproved}."
            },
            "isApprovedForAll(address,address)": {
                "details": "See {IERC721-isApprovedForAll}."
            },
            "name()": {
                "details": "See {IERC721Metadata-name}."
            },
            "owner()": {
                "details": "Returns the address of the current owner."
            },
            "ownerOf(uint256)": {
                "details": "See {IERC721-ownerOf}."
            },
            "renounceOwnership()": {
                "details": "Leaves the contract without owner. It will not be possible to call `onlyOwner` functions anymore. Can only be called by the current owner. NOTE: Renouncing ownership will leave the contract without an owner, thereby removing any functionality that is only available to the owner."
            },
            "safeTransferFrom(address,address,uint256)": {
                "details": "See {IERC721-safeTransferFrom}."
            },
            "safeTransferFrom(address,address,uint256,bytes)": {
                "details": "See {IERC721-safeTransferFrom}."
            },
            "setApprovalForAll(address,bool)": {
                "details": "See {IERC721-setApprovalForAll}."
            },
            "supportsInterface(bytes4)": {
                "details": "See {IERC165-supportsInterface}."
            },
            "symbol()": {
                "details": "See {IERC721Metadata-symbol}."
            },
            "tokenByIndex(uint256)": {
                "details": "See {IERC721Enumerable-tokenByIndex}."
            },
            "tokenOfOwnerByIndex(address,uint256)": {
                "details": "See {IERC721Enumerable-tokenOfOwnerByIndex}."
            },
            "totalSupply()": {
                "details": "See {IERC721Enumerable-totalSupply}."
            },
            "transferFrom(address,address,uint256)": {
                "details": "See {IERC721-transferFrom}."
            },
            "transferOwnership(address)": {
                "details": "Transfers ownership of the contract to a new account (`newOwner`). Can only be called by the current owner."
            }
        },
        "version": 1
    },
    "userdoc": {
        "kind": "user",
        "methods": {
            "approve(address,uint256)": {
                "notice": "Ensure that approvals are only allowed for contract owner."
            },
            "burn(uint256)": {
                "notice": "Ensure that burn is only accepted for contract owner. "
            },
            "destruct()": {
                "notice": "Make the contract destructible (to remove on prod)"
            },
            "getEmployeeVacationRights(address)": {
                "notice": "Calculate total amount of days the employee can expect according to its time in the company."
            },
            "mint(address,string,uint256)": {
                "notice": "Mint a new employee card SBT token."
            },
            "tokenURI(uint256)": {
                "notice": "Gets the URI of the token metadata. Using IPFS URI is highly recommended."
            }
        },
        "version": 1
    }
}